{
	"contracts/3_MultiSigWallet.sol": {
		"MultiSigWallet": {
			"abi": [
				{
					"inputs": [
						{
							"internalType": "address",
							"name": "_owner1",
							"type": "address"
						},
						{
							"internalType": "address",
							"name": "_owner2",
							"type": "address"
						},
						{
							"internalType": "address",
							"name": "_owner3",
							"type": "address"
						}
					],
					"stateMutability": "nonpayable",
					"type": "constructor"
				},
				{
					"anonymous": false,
					"inputs": [
						{
							"indexed": true,
							"internalType": "uint256",
							"name": "id",
							"type": "uint256"
						},
						{
							"indexed": true,
							"internalType": "address",
							"name": "approver",
							"type": "address"
						}
					],
					"name": "TransactionApproved",
					"type": "event"
				},
				{
					"anonymous": false,
					"inputs": [
						{
							"indexed": true,
							"internalType": "uint256",
							"name": "id",
							"type": "uint256"
						}
					],
					"name": "TransactionExecuted",
					"type": "event"
				},
				{
					"anonymous": false,
					"inputs": [
						{
							"indexed": true,
							"internalType": "uint256",
							"name": "id",
							"type": "uint256"
						},
						{
							"indexed": true,
							"internalType": "address",
							"name": "destination",
							"type": "address"
						},
						{
							"indexed": false,
							"internalType": "uint256",
							"name": "amount",
							"type": "uint256"
						}
					],
					"name": "TransactionProposed",
					"type": "event"
				},
				{
					"inputs": [
						{
							"internalType": "uint256",
							"name": "_transactionId",
							"type": "uint256"
						}
					],
					"name": "approveTransaction",
					"outputs": [],
					"stateMutability": "nonpayable",
					"type": "function"
				},
				{
					"inputs": [],
					"name": "getBalance",
					"outputs": [
						{
							"internalType": "uint256",
							"name": "",
							"type": "uint256"
						}
					],
					"stateMutability": "view",
					"type": "function"
				},
				{
					"inputs": [],
					"name": "owner1",
					"outputs": [
						{
							"internalType": "address",
							"name": "",
							"type": "address"
						}
					],
					"stateMutability": "view",
					"type": "function"
				},
				{
					"inputs": [],
					"name": "owner2",
					"outputs": [
						{
							"internalType": "address",
							"name": "",
							"type": "address"
						}
					],
					"stateMutability": "view",
					"type": "function"
				},
				{
					"inputs": [],
					"name": "owner3",
					"outputs": [
						{
							"internalType": "address",
							"name": "",
							"type": "address"
						}
					],
					"stateMutability": "view",
					"type": "function"
				},
				{
					"inputs": [
						{
							"internalType": "address",
							"name": "_destination",
							"type": "address"
						},
						{
							"internalType": "uint256",
							"name": "_amount",
							"type": "uint256"
						}
					],
					"name": "proposeTransaction",
					"outputs": [],
					"stateMutability": "nonpayable",
					"type": "function"
				},
				{
					"inputs": [],
					"name": "transactionIdCounter",
					"outputs": [
						{
							"internalType": "uint256",
							"name": "",
							"type": "uint256"
						}
					],
					"stateMutability": "view",
					"type": "function"
				},
				{
					"inputs": [
						{
							"internalType": "uint256",
							"name": "",
							"type": "uint256"
						}
					],
					"name": "transactions",
					"outputs": [
						{
							"internalType": "uint256",
							"name": "id",
							"type": "uint256"
						},
						{
							"internalType": "address",
							"name": "destination",
							"type": "address"
						},
						{
							"internalType": "uint256",
							"name": "amount",
							"type": "uint256"
						},
						{
							"internalType": "uint256",
							"name": "approvals",
							"type": "uint256"
						},
						{
							"internalType": "bool",
							"name": "executed",
							"type": "bool"
						}
					],
					"stateMutability": "view",
					"type": "function"
				}
			],
			"devdoc": {
				"kind": "dev",
				"methods": {},
				"version": 1
			},
			"evm": {
				"assembly": "    /* \"contracts/3_MultiSigWallet.sol\":57:3975  contract MultiSigWallet {... */\n  mstore(0x40, 0x80)\n    /* \"contracts/3_MultiSigWallet.sol\":1608:1790  constructor(address _owner1, address _owner2, address _owner3) {... */\n  callvalue\n  dup1\n  iszero\n  tag_1\n  jumpi\n  0x00\n  dup1\n  revert\ntag_1:\n  pop\n  mload(0x40)\n  sub(codesize, bytecodeSize)\n  dup1\n  bytecodeSize\n  dup4\n  codecopy\n  dup2\n  dup2\n  add\n  0x40\n  mstore\n  dup2\n  add\n  swap1\n  tag_2\n  swap2\n  swap1\n  tag_3\n  jump\t// in\ntag_2:\n    /* \"contracts/3_MultiSigWallet.sol\":1690:1697  _owner1 */\n  dup3\n    /* \"contracts/3_MultiSigWallet.sol\":1681:1687  owner1 */\n  0x00\n  dup1\n    /* \"contracts/3_MultiSigWallet.sol\":1681:1697  owner1 = _owner1 */\n  0x0100\n  exp\n  dup2\n  sload\n  dup2\n  0xffffffffffffffffffffffffffffffffffffffff\n  mul\n  not\n  and\n  swap1\n  dup4\n  0xffffffffffffffffffffffffffffffffffffffff\n  and\n  mul\n  or\n  swap1\n  sstore\n  pop\n    /* \"contracts/3_MultiSigWallet.sol\":1716:1723  _owner2 */\n  dup2\n    /* \"contracts/3_MultiSigWallet.sol\":1707:1713  owner2 */\n  0x01\n  0x00\n    /* \"contracts/3_MultiSigWallet.sol\":1707:1723  owner2 = _owner2 */\n  0x0100\n  exp\n  dup2\n  sload\n  dup2\n  0xffffffffffffffffffffffffffffffffffffffff\n  mul\n  not\n  and\n  swap1\n  dup4\n  0xffffffffffffffffffffffffffffffffffffffff\n  and\n  mul\n  or\n  swap1\n  sstore\n  pop\n    /* \"contracts/3_MultiSigWallet.sol\":1742:1749  _owner3 */\n  dup1\n    /* \"contracts/3_MultiSigWallet.sol\":1733:1739  owner3 */\n  0x02\n  0x00\n    /* \"contracts/3_MultiSigWallet.sol\":1733:1749  owner3 = _owner3 */\n  0x0100\n  exp\n  dup2\n  sload\n  dup2\n  0xffffffffffffffffffffffffffffffffffffffff\n  mul\n  not\n  and\n  swap1\n  dup4\n  0xffffffffffffffffffffffffffffffffffffffff\n  and\n  mul\n  or\n  swap1\n  sstore\n  pop\n    /* \"contracts/3_MultiSigWallet.sol\":1782:1783  1 */\n  0x01\n    /* \"contracts/3_MultiSigWallet.sol\":1759:1779  transactionIdCounter */\n  0x03\n    /* \"contracts/3_MultiSigWallet.sol\":1759:1783  transactionIdCounter = 1 */\n  dup2\n  swap1\n  sstore\n  pop\n    /* \"contracts/3_MultiSigWallet.sol\":1608:1790  constructor(address _owner1, address _owner2, address _owner3) {... */\n  pop\n  pop\n  pop\n    /* \"contracts/3_MultiSigWallet.sol\":57:3975  contract MultiSigWallet {... */\n  jump(tag_6)\n    /* \"#utility.yul\":88:205   */\ntag_8:\n    /* \"#utility.yul\":197:198   */\n  0x00\n    /* \"#utility.yul\":194:195   */\n  dup1\n    /* \"#utility.yul\":187:199   */\n  revert\n    /* \"#utility.yul\":334:460   */\ntag_10:\n    /* \"#utility.yul\":371:378   */\n  0x00\n    /* \"#utility.yul\":411:453   */\n  0xffffffffffffffffffffffffffffffffffffffff\n    /* \"#utility.yul\":404:409   */\n  dup3\n    /* \"#utility.yul\":400:454   */\n  and\n    /* \"#utility.yul\":389:454   */\n  swap1\n  pop\n    /* \"#utility.yul\":334:460   */\n  swap2\n  swap1\n  pop\n  jump\t// out\n    /* \"#utility.yul\":466:562   */\ntag_11:\n    /* \"#utility.yul\":503:510   */\n  0x00\n    /* \"#utility.yul\":532:556   */\n  tag_20\n    /* \"#utility.yul\":550:555   */\n  dup3\n    /* \"#utility.yul\":532:556   */\n  tag_10\n  jump\t// in\ntag_20:\n    /* \"#utility.yul\":521:556   */\n  swap1\n  pop\n    /* \"#utility.yul\":466:562   */\n  swap2\n  swap1\n  pop\n  jump\t// out\n    /* \"#utility.yul\":568:690   */\ntag_12:\n    /* \"#utility.yul\":641:665   */\n  tag_22\n    /* \"#utility.yul\":659:664   */\n  dup2\n    /* \"#utility.yul\":641:665   */\n  tag_11\n  jump\t// in\ntag_22:\n    /* \"#utility.yul\":634:639   */\n  dup2\n    /* \"#utility.yul\":631:666   */\n  eq\n    /* \"#utility.yul\":621:684   */\n  tag_23\n  jumpi\n    /* \"#utility.yul\":680:681   */\n  0x00\n    /* \"#utility.yul\":677:678   */\n  dup1\n    /* \"#utility.yul\":670:682   */\n  revert\n    /* \"#utility.yul\":621:684   */\ntag_23:\n    /* \"#utility.yul\":568:690   */\n  pop\n  jump\t// out\n    /* \"#utility.yul\":696:839   */\ntag_13:\n    /* \"#utility.yul\":753:758   */\n  0x00\n    /* \"#utility.yul\":784:790   */\n  dup2\n    /* \"#utility.yul\":778:791   */\n  mload\n    /* \"#utility.yul\":769:791   */\n  swap1\n  pop\n    /* \"#utility.yul\":800:833   */\n  tag_25\n    /* \"#utility.yul\":827:832   */\n  dup2\n    /* \"#utility.yul\":800:833   */\n  tag_12\n  jump\t// in\ntag_25:\n    /* \"#utility.yul\":696:839   */\n  swap3\n  swap2\n  pop\n  pop\n  jump\t// out\n    /* \"#utility.yul\":845:1508   */\ntag_3:\n    /* \"#utility.yul\":933:939   */\n  0x00\n    /* \"#utility.yul\":941:947   */\n  dup1\n    /* \"#utility.yul\":949:955   */\n  0x00\n    /* \"#utility.yul\":998:1000   */\n  0x60\n    /* \"#utility.yul\":986:995   */\n  dup5\n    /* \"#utility.yul\":977:984   */\n  dup7\n    /* \"#utility.yul\":973:996   */\n  sub\n    /* \"#utility.yul\":969:1001   */\n  slt\n    /* \"#utility.yul\":966:1085   */\n  iszero\n  tag_27\n  jumpi\n    /* \"#utility.yul\":1004:1083   */\n  tag_28\n  tag_8\n  jump\t// in\ntag_28:\n    /* \"#utility.yul\":966:1085   */\ntag_27:\n    /* \"#utility.yul\":1124:1125   */\n  0x00\n    /* \"#utility.yul\":1149:1213   */\n  tag_29\n    /* \"#utility.yul\":1205:1212   */\n  dup7\n    /* \"#utility.yul\":1196:1202   */\n  dup3\n    /* \"#utility.yul\":1185:1194   */\n  dup8\n    /* \"#utility.yul\":1181:1203   */\n  add\n    /* \"#utility.yul\":1149:1213   */\n  tag_13\n  jump\t// in\ntag_29:\n    /* \"#utility.yul\":1139:1213   */\n  swap4\n  pop\n    /* \"#utility.yul\":1095:1223   */\n  pop\n    /* \"#utility.yul\":1262:1264   */\n  0x20\n    /* \"#utility.yul\":1288:1352   */\n  tag_30\n    /* \"#utility.yul\":1344:1351   */\n  dup7\n    /* \"#utility.yul\":1335:1341   */\n  dup3\n    /* \"#utility.yul\":1324:1333   */\n  dup8\n    /* \"#utility.yul\":1320:1342   */\n  add\n    /* \"#utility.yul\":1288:1352   */\n  tag_13\n  jump\t// in\ntag_30:\n    /* \"#utility.yul\":1278:1352   */\n  swap3\n  pop\n    /* \"#utility.yul\":1233:1362   */\n  pop\n    /* \"#utility.yul\":1401:1403   */\n  0x40\n    /* \"#utility.yul\":1427:1491   */\n  tag_31\n    /* \"#utility.yul\":1483:1490   */\n  dup7\n    /* \"#utility.yul\":1474:1480   */\n  dup3\n    /* \"#utility.yul\":1463:1472   */\n  dup8\n    /* \"#utility.yul\":1459:1481   */\n  add\n    /* \"#utility.yul\":1427:1491   */\n  tag_13\n  jump\t// in\ntag_31:\n    /* \"#utility.yul\":1417:1491   */\n  swap2\n  pop\n    /* \"#utility.yul\":1372:1501   */\n  pop\n    /* \"#utility.yul\":845:1508   */\n  swap3\n  pop\n  swap3\n  pop\n  swap3\n  jump\t// out\n    /* \"contracts/3_MultiSigWallet.sol\":57:3975  contract MultiSigWallet {... */\ntag_6:\n  dataSize(sub_0)\n  dup1\n  dataOffset(sub_0)\n  0x00\n  codecopy\n  0x00\n  return\nstop\n\nsub_0: assembly {\n        /* \"contracts/3_MultiSigWallet.sol\":57:3975  contract MultiSigWallet {... */\n      mstore(0x40, 0x80)\n      callvalue\n      dup1\n      iszero\n      tag_1\n      jumpi\n      0x00\n      dup1\n      revert\n    tag_1:\n      pop\n      jumpi(tag_2, lt(calldatasize, 0x04))\n      shr(0xe0, calldataload(0x00))\n      dup1\n      0x73688914\n      gt\n      tag_11\n      jumpi\n      dup1\n      0x73688914\n      eq\n      tag_7\n      jumpi\n      dup1\n      0x9ace38c2\n      eq\n      tag_8\n      jumpi\n      dup1\n      0xb6f36dcf\n      eq\n      tag_9\n      jumpi\n      dup1\n      0xf19a6682\n      eq\n      tag_10\n      jumpi\n      jump(tag_2)\n    tag_11:\n      dup1\n      0x0c536933\n      eq\n      tag_3\n      jumpi\n      dup1\n      0x12065fe0\n      eq\n      tag_4\n      jumpi\n      dup1\n      0x242232d1\n      eq\n      tag_5\n      jumpi\n      dup1\n      0x52709725\n      eq\n      tag_6\n      jumpi\n    tag_2:\n      0x00\n      dup1\n      revert\n        /* \"contracts/3_MultiSigWallet.sol\":260:295  uint256 public transactionIdCounter */\n    tag_3:\n      tag_12\n      tag_13\n      jump\t// in\n    tag_12:\n      mload(0x40)\n      tag_14\n      swap2\n      swap1\n      tag_15\n      jump\t// in\n    tag_14:\n      mload(0x40)\n      dup1\n      swap2\n      sub\n      swap1\n      return\n        /* \"contracts/3_MultiSigWallet.sol\":3874:3973  function getBalance() external view returns (uint256) {... */\n    tag_4:\n      tag_16\n      tag_17\n      jump\t// in\n    tag_16:\n      mload(0x40)\n      tag_18\n      swap2\n      swap1\n      tag_15\n      jump\t// in\n    tag_18:\n      mload(0x40)\n      dup1\n      swap2\n      sub\n      swap1\n      return\n        /* \"contracts/3_MultiSigWallet.sol\":2311:3067  function approveTransaction(uint256 _transactionId)... */\n    tag_5:\n      tag_19\n      0x04\n      dup1\n      calldatasize\n      sub\n      dup2\n      add\n      swap1\n      tag_20\n      swap2\n      swap1\n      tag_21\n      jump\t// in\n    tag_20:\n      tag_22\n      jump\t// in\n    tag_19:\n      stop\n        /* \"contracts/3_MultiSigWallet.sol\":170:191  address public owner2 */\n    tag_6:\n      tag_23\n      tag_24\n      jump\t// in\n    tag_23:\n      mload(0x40)\n      tag_25\n      swap2\n      swap1\n      tag_26\n      jump\t// in\n    tag_25:\n      mload(0x40)\n      dup1\n      swap2\n      sub\n      swap1\n      return\n        /* \"contracts/3_MultiSigWallet.sol\":143:164  address public owner1 */\n    tag_7:\n      tag_27\n      tag_28\n      jump\t// in\n    tag_27:\n      mload(0x40)\n      tag_29\n      swap2\n      swap1\n      tag_26\n      jump\t// in\n    tag_29:\n      mload(0x40)\n      dup1\n      swap2\n      sub\n      swap1\n      return\n        /* \"contracts/3_MultiSigWallet.sol\":548:599  mapping(uint256 => Transaction) public transactions */\n    tag_8:\n      tag_30\n      0x04\n      dup1\n      calldatasize\n      sub\n      dup2\n      add\n      swap1\n      tag_31\n      swap2\n      swap1\n      tag_21\n      jump\t// in\n    tag_31:\n      tag_32\n      jump\t// in\n    tag_30:\n      mload(0x40)\n      tag_33\n      swap6\n      swap5\n      swap4\n      swap3\n      swap2\n      swap1\n      tag_34\n      jump\t// in\n    tag_33:\n      mload(0x40)\n      dup1\n      swap2\n      sub\n      swap1\n      return\n        /* \"contracts/3_MultiSigWallet.sol\":197:218  address public owner3 */\n    tag_9:\n      tag_35\n      tag_36\n      jump\t// in\n    tag_35:\n      mload(0x40)\n      tag_37\n      swap2\n      swap1\n      tag_26\n      jump\t// in\n    tag_37:\n      mload(0x40)\n      dup1\n      swap2\n      sub\n      swap1\n      return\n        /* \"contracts/3_MultiSigWallet.sol\":1838:2255  function proposeTransaction(address _destination, uint256 _amount) external onlyOwners {... */\n    tag_10:\n      tag_38\n      0x04\n      dup1\n      calldatasize\n      sub\n      dup2\n      add\n      swap1\n      tag_39\n      swap2\n      swap1\n      tag_40\n      jump\t// in\n    tag_39:\n      tag_41\n      jump\t// in\n    tag_38:\n      stop\n        /* \"contracts/3_MultiSigWallet.sol\":260:295  uint256 public transactionIdCounter */\n    tag_13:\n      sload(0x03)\n      dup2\n      jump\t// out\n        /* \"contracts/3_MultiSigWallet.sol\":3874:3973  function getBalance() external view returns (uint256) {... */\n    tag_17:\n        /* \"contracts/3_MultiSigWallet.sol\":3919:3926  uint256 */\n      0x00\n        /* \"contracts/3_MultiSigWallet.sol\":3945:3966  address(this).balance */\n      selfbalance\n        /* \"contracts/3_MultiSigWallet.sol\":3938:3966  return address(this).balance */\n      swap1\n      pop\n        /* \"contracts/3_MultiSigWallet.sol\":3874:3973  function getBalance() external view returns (uint256) {... */\n      swap1\n      jump\t// out\n        /* \"contracts/3_MultiSigWallet.sol\":2311:3067  function approveTransaction(uint256 _transactionId)... */\n    tag_22:\n        /* \"contracts/3_MultiSigWallet.sol\":1126:1132  owner1 */\n      0x00\n      dup1\n      sload\n      swap1\n      0x0100\n      exp\n      swap1\n      div\n      0xffffffffffffffffffffffffffffffffffffffff\n      and\n        /* \"contracts/3_MultiSigWallet.sol\":1112:1132  msg.sender == owner1 */\n      0xffffffffffffffffffffffffffffffffffffffff\n      and\n        /* \"contracts/3_MultiSigWallet.sol\":1112:1122  msg.sender */\n      caller\n        /* \"contracts/3_MultiSigWallet.sol\":1112:1132  msg.sender == owner1 */\n      0xffffffffffffffffffffffffffffffffffffffff\n      and\n      eq\n        /* \"contracts/3_MultiSigWallet.sol\":1112:1156  msg.sender == owner1 || msg.sender == owner2 */\n      dup1\n      tag_44\n      jumpi\n      pop\n        /* \"contracts/3_MultiSigWallet.sol\":1150:1156  owner2 */\n      0x01\n      0x00\n      swap1\n      sload\n      swap1\n      0x0100\n      exp\n      swap1\n      div\n      0xffffffffffffffffffffffffffffffffffffffff\n      and\n        /* \"contracts/3_MultiSigWallet.sol\":1136:1156  msg.sender == owner2 */\n      0xffffffffffffffffffffffffffffffffffffffff\n      and\n        /* \"contracts/3_MultiSigWallet.sol\":1136:1146  msg.sender */\n      caller\n        /* \"contracts/3_MultiSigWallet.sol\":1136:1156  msg.sender == owner2 */\n      0xffffffffffffffffffffffffffffffffffffffff\n      and\n      eq\n        /* \"contracts/3_MultiSigWallet.sol\":1112:1156  msg.sender == owner1 || msg.sender == owner2 */\n    tag_44:\n        /* \"contracts/3_MultiSigWallet.sol\":1112:1180  msg.sender == owner1 || msg.sender == owner2 || msg.sender == owner3 */\n      dup1\n      tag_45\n      jumpi\n      pop\n        /* \"contracts/3_MultiSigWallet.sol\":1174:1180  owner3 */\n      0x02\n      0x00\n      swap1\n      sload\n      swap1\n      0x0100\n      exp\n      swap1\n      div\n      0xffffffffffffffffffffffffffffffffffffffff\n      and\n        /* \"contracts/3_MultiSigWallet.sol\":1160:1180  msg.sender == owner3 */\n      0xffffffffffffffffffffffffffffffffffffffff\n      and\n        /* \"contracts/3_MultiSigWallet.sol\":1160:1170  msg.sender */\n      caller\n        /* \"contracts/3_MultiSigWallet.sol\":1160:1180  msg.sender == owner3 */\n      0xffffffffffffffffffffffffffffffffffffffff\n      and\n      eq\n        /* \"contracts/3_MultiSigWallet.sol\":1112:1180  msg.sender == owner1 || msg.sender == owner2 || msg.sender == owner3 */\n    tag_45:\n        /* \"contracts/3_MultiSigWallet.sol\":1091:1218  require(... */\n      tag_46\n      jumpi\n      mload(0x40)\n      0x08c379a000000000000000000000000000000000000000000000000000000000\n      dup2\n      mstore\n      0x04\n      add\n      tag_47\n      swap1\n      tag_48\n      jump\t// in\n    tag_47:\n      mload(0x40)\n      dup1\n      swap2\n      sub\n      swap1\n      revert\n    tag_46:\n        /* \"contracts/3_MultiSigWallet.sol\":2412:2426  _transactionId */\n      dup1\n        /* \"contracts/3_MultiSigWallet.sol\":1380:1400  transactionIdCounter */\n      sload(0x03)\n        /* \"contracts/3_MultiSigWallet.sol\":1362:1376  _transactionId */\n      dup2\n        /* \"contracts/3_MultiSigWallet.sol\":1362:1400  _transactionId <= transactionIdCounter */\n      gt\n      iszero\n        /* \"contracts/3_MultiSigWallet.sol\":1354:1427  require(_transactionId <= transactionIdCounter, \"Invalid transaction ID\") */\n      tag_50\n      jumpi\n      mload(0x40)\n      0x08c379a000000000000000000000000000000000000000000000000000000000\n      dup2\n      mstore\n      0x04\n      add\n      tag_51\n      swap1\n      tag_52\n      jump\t// in\n    tag_51:\n      mload(0x40)\n      dup1\n      swap2\n      sub\n      swap1\n      revert\n    tag_50:\n        /* \"contracts/3_MultiSigWallet.sol\":1446:1458  transactions */\n      0x04\n        /* \"contracts/3_MultiSigWallet.sol\":1446:1474  transactions[_transactionId] */\n      0x00\n        /* \"contracts/3_MultiSigWallet.sol\":1459:1473  _transactionId */\n      dup3\n        /* \"contracts/3_MultiSigWallet.sol\":1446:1474  transactions[_transactionId] */\n      dup2\n      mstore\n      0x20\n      add\n      swap1\n      dup2\n      mstore\n      0x20\n      add\n      0x00\n      keccak256\n        /* \"contracts/3_MultiSigWallet.sol\":1446:1483  transactions[_transactionId].executed */\n      0x05\n      add\n      0x00\n      swap1\n      sload\n      swap1\n      0x0100\n      exp\n      swap1\n      div\n      0xff\n      and\n        /* \"contracts/3_MultiSigWallet.sol\":1445:1483  !transactions[_transactionId].executed */\n      iszero\n        /* \"contracts/3_MultiSigWallet.sol\":1437:1516  require(!transactions[_transactionId].executed, \"Transaction already executed\") */\n      tag_53\n      jumpi\n      mload(0x40)\n      0x08c379a000000000000000000000000000000000000000000000000000000000\n      dup2\n      mstore\n      0x04\n      add\n      tag_54\n      swap1\n      tag_55\n      jump\t// in\n    tag_54:\n      mload(0x40)\n      dup1\n      swap2\n      sub\n      swap1\n      revert\n    tag_53:\n        /* \"contracts/3_MultiSigWallet.sol\":2434:2465  Transaction storage transaction */\n      0x00\n        /* \"contracts/3_MultiSigWallet.sol\":2468:2480  transactions */\n      0x04\n        /* \"contracts/3_MultiSigWallet.sol\":2468:2496  transactions[_transactionId] */\n      0x00\n        /* \"contracts/3_MultiSigWallet.sol\":2481:2495  _transactionId */\n      dup5\n        /* \"contracts/3_MultiSigWallet.sol\":2468:2496  transactions[_transactionId] */\n      dup2\n      mstore\n      0x20\n      add\n      swap1\n      dup2\n      mstore\n      0x20\n      add\n      0x00\n      keccak256\n        /* \"contracts/3_MultiSigWallet.sol\":2434:2496  Transaction storage transaction = transactions[_transactionId] */\n      swap1\n      pop\n        /* \"contracts/3_MultiSigWallet.sol\":2502:2522  bool alreadyApproved */\n      0x00\n        /* \"contracts/3_MultiSigWallet.sol\":2542:2551  uint256 i */\n      dup1\n        /* \"contracts/3_MultiSigWallet.sol\":2537:2724  for (uint256 i = 0; i < transaction.approvedBy.length; i++) {... */\n    tag_57:\n        /* \"contracts/3_MultiSigWallet.sol\":2561:2572  transaction */\n      dup3\n        /* \"contracts/3_MultiSigWallet.sol\":2561:2583  transaction.approvedBy */\n      0x04\n      add\n        /* \"contracts/3_MultiSigWallet.sol\":2561:2590  transaction.approvedBy.length */\n      dup1\n      sload\n      swap1\n      pop\n        /* \"contracts/3_MultiSigWallet.sol\":2557:2558  i */\n      dup2\n        /* \"contracts/3_MultiSigWallet.sol\":2557:2590  i < transaction.approvedBy.length */\n      lt\n        /* \"contracts/3_MultiSigWallet.sol\":2537:2724  for (uint256 i = 0; i < transaction.approvedBy.length; i++) {... */\n      iszero\n      tag_58\n      jumpi\n        /* \"contracts/3_MultiSigWallet.sol\":2640:2650  msg.sender */\n      caller\n        /* \"contracts/3_MultiSigWallet.sol\":2611:2650  transaction.approvedBy[i] == msg.sender */\n      0xffffffffffffffffffffffffffffffffffffffff\n      and\n        /* \"contracts/3_MultiSigWallet.sol\":2611:2622  transaction */\n      dup4\n        /* \"contracts/3_MultiSigWallet.sol\":2611:2633  transaction.approvedBy */\n      0x04\n      add\n        /* \"contracts/3_MultiSigWallet.sol\":2634:2635  i */\n      dup3\n        /* \"contracts/3_MultiSigWallet.sol\":2611:2636  transaction.approvedBy[i] */\n      dup2\n      sload\n      dup2\n      lt\n      tag_60\n      jumpi\n      tag_61\n      tag_62\n      jump\t// in\n    tag_61:\n    tag_60:\n      swap1\n      0x00\n      mstore\n      keccak256(0x00, 0x20)\n      add\n      0x00\n      swap1\n      sload\n      swap1\n      0x0100\n      exp\n      swap1\n      div\n      0xffffffffffffffffffffffffffffffffffffffff\n      and\n        /* \"contracts/3_MultiSigWallet.sol\":2611:2650  transaction.approvedBy[i] == msg.sender */\n      0xffffffffffffffffffffffffffffffffffffffff\n      and\n      sub\n        /* \"contracts/3_MultiSigWallet.sol\":2607:2718  if (transaction.approvedBy[i] == msg.sender) {... */\n      tag_64\n      jumpi\n        /* \"contracts/3_MultiSigWallet.sol\":2684:2688  true */\n      0x01\n        /* \"contracts/3_MultiSigWallet.sol\":2666:2688  alreadyApproved = true */\n      swap2\n      pop\n        /* \"contracts/3_MultiSigWallet.sol\":2702:2707  break */\n      jump(tag_58)\n        /* \"contracts/3_MultiSigWallet.sol\":2607:2718  if (transaction.approvedBy[i] == msg.sender) {... */\n    tag_64:\n        /* \"contracts/3_MultiSigWallet.sol\":2592:2595  i++ */\n      dup1\n      dup1\n      0x01\n      add\n      swap2\n      pop\n      pop\n        /* \"contracts/3_MultiSigWallet.sol\":2537:2724  for (uint256 i = 0; i < transaction.approvedBy.length; i++) {... */\n      jump(tag_57)\n    tag_58:\n      pop\n        /* \"contracts/3_MultiSigWallet.sol\":2739:2754  alreadyApproved */\n      dup1\n        /* \"contracts/3_MultiSigWallet.sol\":2738:2754  !alreadyApproved */\n      iszero\n        /* \"contracts/3_MultiSigWallet.sol\":2730:2775  require(!alreadyApproved, \"Already approved\") */\n      tag_65\n      jumpi\n      mload(0x40)\n      0x08c379a000000000000000000000000000000000000000000000000000000000\n      dup2\n      mstore\n      0x04\n      add\n      tag_66\n      swap1\n      tag_67\n      jump\t// in\n    tag_66:\n      mload(0x40)\n      dup1\n      swap2\n      sub\n      swap1\n      revert\n    tag_65:\n        /* \"contracts/3_MultiSigWallet.sol\":2782:2793  transaction */\n      dup2\n        /* \"contracts/3_MultiSigWallet.sol\":2782:2804  transaction.approvedBy */\n      0x04\n      add\n        /* \"contracts/3_MultiSigWallet.sol\":2810:2820  msg.sender */\n      caller\n        /* \"contracts/3_MultiSigWallet.sol\":2782:2821  transaction.approvedBy.push(msg.sender) */\n      swap1\n      dup1\n      0x01\n      dup2\n      sload\n      add\n      dup1\n      dup3\n      sstore\n      dup1\n      swap2\n      pop\n      pop\n      0x01\n      swap1\n      sub\n      swap1\n      0x00\n      mstore\n      keccak256(0x00, 0x20)\n      add\n      0x00\n      swap1\n      swap2\n      swap1\n      swap2\n      swap1\n      swap2\n      0x0100\n      exp\n      dup2\n      sload\n      dup2\n      0xffffffffffffffffffffffffffffffffffffffff\n      mul\n      not\n      and\n      swap1\n      dup4\n      0xffffffffffffffffffffffffffffffffffffffff\n      and\n      mul\n      or\n      swap1\n      sstore\n      pop\n        /* \"contracts/3_MultiSigWallet.sol\":2827:2838  transaction */\n      dup2\n        /* \"contracts/3_MultiSigWallet.sol\":2827:2848  transaction.approvals */\n      0x03\n      add\n      0x00\n        /* \"contracts/3_MultiSigWallet.sol\":2827:2850  transaction.approvals++ */\n      dup2\n      sload\n      dup1\n      swap3\n      swap2\n      swap1\n      tag_69\n      swap1\n      tag_70\n      jump\t// in\n    tag_69:\n      swap2\n      swap1\n      pop\n      sstore\n      pop\n        /* \"contracts/3_MultiSigWallet.sol\":2898:2908  msg.sender */\n      caller\n        /* \"contracts/3_MultiSigWallet.sol\":2862:2909  TransactionApproved(_transactionId, msg.sender) */\n      0xffffffffffffffffffffffffffffffffffffffff\n      and\n        /* \"contracts/3_MultiSigWallet.sol\":2882:2896  _transactionId */\n      dup5\n        /* \"contracts/3_MultiSigWallet.sol\":2862:2909  TransactionApproved(_transactionId, msg.sender) */\n      0x924813d717e221b5f46dcd8a56da1679e4612584ab3237d55e5faabf6f6a3079\n      mload(0x40)\n      mload(0x40)\n      dup1\n      swap2\n      sub\n      swap1\n      log3\n        /* \"contracts/3_MultiSigWallet.sol\":3011:3012  2 */\n      0x02\n        /* \"contracts/3_MultiSigWallet.sol\":2986:2997  transaction */\n      dup3\n        /* \"contracts/3_MultiSigWallet.sol\":2986:3007  transaction.approvals */\n      0x03\n      add\n      sload\n        /* \"contracts/3_MultiSigWallet.sol\":2986:3012  transaction.approvals >= 2 */\n      lt\n        /* \"contracts/3_MultiSigWallet.sol\":2982:3065  if (transaction.approvals >= 2) {... */\n      tag_71\n      jumpi\n        /* \"contracts/3_MultiSigWallet.sol\":3024:3058  executeTransaction(_transactionId) */\n      tag_72\n        /* \"contracts/3_MultiSigWallet.sol\":3043:3057  _transactionId */\n      dup5\n        /* \"contracts/3_MultiSigWallet.sol\":3024:3042  executeTransaction */\n      tag_73\n        /* \"contracts/3_MultiSigWallet.sol\":3024:3058  executeTransaction(_transactionId) */\n      jump\t// in\n    tag_72:\n        /* \"contracts/3_MultiSigWallet.sol\":2982:3065  if (transaction.approvals >= 2) {... */\n    tag_71:\n        /* \"contracts/3_MultiSigWallet.sol\":2428:3067  {... */\n      pop\n      pop\n        /* \"contracts/3_MultiSigWallet.sol\":1228:1229  _ */\n      pop\n        /* \"contracts/3_MultiSigWallet.sol\":2311:3067  function approveTransaction(uint256 _transactionId)... */\n      pop\n      jump\t// out\n        /* \"contracts/3_MultiSigWallet.sol\":170:191  address public owner2 */\n    tag_24:\n      0x01\n      0x00\n      swap1\n      sload\n      swap1\n      0x0100\n      exp\n      swap1\n      div\n      0xffffffffffffffffffffffffffffffffffffffff\n      and\n      dup2\n      jump\t// out\n        /* \"contracts/3_MultiSigWallet.sol\":143:164  address public owner1 */\n    tag_28:\n      0x00\n      dup1\n      sload\n      swap1\n      0x0100\n      exp\n      swap1\n      div\n      0xffffffffffffffffffffffffffffffffffffffff\n      and\n      dup2\n      jump\t// out\n        /* \"contracts/3_MultiSigWallet.sol\":548:599  mapping(uint256 => Transaction) public transactions */\n    tag_32:\n      mstore(0x20, 0x04)\n      dup1\n      0x00\n      mstore\n      keccak256(0x00, 0x40)\n      0x00\n      swap2\n      pop\n      swap1\n      pop\n      dup1\n      0x00\n      add\n      sload\n      swap1\n      dup1\n      0x01\n      add\n      0x00\n      swap1\n      sload\n      swap1\n      0x0100\n      exp\n      swap1\n      div\n      0xffffffffffffffffffffffffffffffffffffffff\n      and\n      swap1\n      dup1\n      0x02\n      add\n      sload\n      swap1\n      dup1\n      0x03\n      add\n      sload\n      swap1\n      dup1\n      0x05\n      add\n      0x00\n      swap1\n      sload\n      swap1\n      0x0100\n      exp\n      swap1\n      div\n      0xff\n      and\n      swap1\n      pop\n      dup6\n      jump\t// out\n        /* \"contracts/3_MultiSigWallet.sol\":197:218  address public owner3 */\n    tag_36:\n      0x02\n      0x00\n      swap1\n      sload\n      swap1\n      0x0100\n      exp\n      swap1\n      div\n      0xffffffffffffffffffffffffffffffffffffffff\n      and\n      dup2\n      jump\t// out\n        /* \"contracts/3_MultiSigWallet.sol\":1838:2255  function proposeTransaction(address _destination, uint256 _amount) external onlyOwners {... */\n    tag_41:\n        /* \"contracts/3_MultiSigWallet.sol\":1126:1132  owner1 */\n      0x00\n      dup1\n      sload\n      swap1\n      0x0100\n      exp\n      swap1\n      div\n      0xffffffffffffffffffffffffffffffffffffffff\n      and\n        /* \"contracts/3_MultiSigWallet.sol\":1112:1132  msg.sender == owner1 */\n      0xffffffffffffffffffffffffffffffffffffffff\n      and\n        /* \"contracts/3_MultiSigWallet.sol\":1112:1122  msg.sender */\n      caller\n        /* \"contracts/3_MultiSigWallet.sol\":1112:1132  msg.sender == owner1 */\n      0xffffffffffffffffffffffffffffffffffffffff\n      and\n      eq\n        /* \"contracts/3_MultiSigWallet.sol\":1112:1156  msg.sender == owner1 || msg.sender == owner2 */\n      dup1\n      tag_75\n      jumpi\n      pop\n        /* \"contracts/3_MultiSigWallet.sol\":1150:1156  owner2 */\n      0x01\n      0x00\n      swap1\n      sload\n      swap1\n      0x0100\n      exp\n      swap1\n      div\n      0xffffffffffffffffffffffffffffffffffffffff\n      and\n        /* \"contracts/3_MultiSigWallet.sol\":1136:1156  msg.sender == owner2 */\n      0xffffffffffffffffffffffffffffffffffffffff\n      and\n        /* \"contracts/3_MultiSigWallet.sol\":1136:1146  msg.sender */\n      caller\n        /* \"contracts/3_MultiSigWallet.sol\":1136:1156  msg.sender == owner2 */\n      0xffffffffffffffffffffffffffffffffffffffff\n      and\n      eq\n        /* \"contracts/3_MultiSigWallet.sol\":1112:1156  msg.sender == owner1 || msg.sender == owner2 */\n    tag_75:\n        /* \"contracts/3_MultiSigWallet.sol\":1112:1180  msg.sender == owner1 || msg.sender == owner2 || msg.sender == owner3 */\n      dup1\n      tag_76\n      jumpi\n      pop\n        /* \"contracts/3_MultiSigWallet.sol\":1174:1180  owner3 */\n      0x02\n      0x00\n      swap1\n      sload\n      swap1\n      0x0100\n      exp\n      swap1\n      div\n      0xffffffffffffffffffffffffffffffffffffffff\n      and\n        /* \"contracts/3_MultiSigWallet.sol\":1160:1180  msg.sender == owner3 */\n      0xffffffffffffffffffffffffffffffffffffffff\n      and\n        /* \"contracts/3_MultiSigWallet.sol\":1160:1170  msg.sender */\n      caller\n        /* \"contracts/3_MultiSigWallet.sol\":1160:1180  msg.sender == owner3 */\n      0xffffffffffffffffffffffffffffffffffffffff\n      and\n      eq\n        /* \"contracts/3_MultiSigWallet.sol\":1112:1180  msg.sender == owner1 || msg.sender == owner2 || msg.sender == owner3 */\n    tag_76:\n        /* \"contracts/3_MultiSigWallet.sol\":1091:1218  require(... */\n      tag_77\n      jumpi\n      mload(0x40)\n      0x08c379a000000000000000000000000000000000000000000000000000000000\n      dup2\n      mstore\n      0x04\n      add\n      tag_78\n      swap1\n      tag_48\n      jump\t// in\n    tag_78:\n      mload(0x40)\n      dup1\n      swap2\n      sub\n      swap1\n      revert\n    tag_77:\n        /* \"contracts/3_MultiSigWallet.sol\":1935:1959  uint256 newTransactionId */\n      0x00\n        /* \"contracts/3_MultiSigWallet.sol\":1962:1982  transactionIdCounter */\n      0x03\n      0x00\n        /* \"contracts/3_MultiSigWallet.sol\":1962:1984  transactionIdCounter++ */\n      dup2\n      sload\n      dup1\n      swap3\n      swap2\n      swap1\n      tag_80\n      swap1\n      tag_70\n      jump\t// in\n    tag_80:\n      swap2\n      swap1\n      pop\n      sstore\n        /* \"contracts/3_MultiSigWallet.sol\":1935:1984  uint256 newTransactionId = transactionIdCounter++ */\n      swap1\n      pop\n        /* \"contracts/3_MultiSigWallet.sol\":2027:2172  Transaction(... */\n      mload(0x40)\n      dup1\n      0xc0\n      add\n      0x40\n      mstore\n      dup1\n        /* \"contracts/3_MultiSigWallet.sol\":2044:2060  newTransactionId */\n      dup3\n        /* \"contracts/3_MultiSigWallet.sol\":2027:2172  Transaction(... */\n      dup2\n      mstore\n      0x20\n      add\n        /* \"contracts/3_MultiSigWallet.sol\":2066:2078  _destination */\n      dup5\n        /* \"contracts/3_MultiSigWallet.sol\":2027:2172  Transaction(... */\n      0xffffffffffffffffffffffffffffffffffffffff\n      and\n      dup2\n      mstore\n      0x20\n      add\n        /* \"contracts/3_MultiSigWallet.sol\":2084:2091  _amount */\n      dup4\n        /* \"contracts/3_MultiSigWallet.sol\":2027:2172  Transaction(... */\n      dup2\n      mstore\n      0x20\n      add\n        /* \"contracts/3_MultiSigWallet.sol\":2097:2098  0 */\n      0x00\n        /* \"contracts/3_MultiSigWallet.sol\":2027:2172  Transaction(... */\n      dup2\n      mstore\n      0x20\n      add\n        /* \"contracts/3_MultiSigWallet.sol\":2118:2119  0 */\n      0x00\n        /* \"contracts/3_MultiSigWallet.sol\":2104:2120  new address[](0) */\n      0xffffffffffffffff\n      dup2\n      gt\n      iszero\n      tag_81\n      jumpi\n      tag_82\n      tag_83\n      jump\t// in\n    tag_82:\n    tag_81:\n      mload(0x40)\n      swap1\n      dup1\n      dup3\n      mstore\n      dup1\n      0x20\n      mul\n      0x20\n      add\n      dup3\n      add\n      0x40\n      mstore\n      dup1\n      iszero\n      tag_84\n      jumpi\n      dup2\n      0x20\n      add\n      0x20\n      dup3\n      mul\n      dup1\n      calldatasize\n      dup4\n      calldatacopy\n      dup1\n      dup3\n      add\n      swap2\n      pop\n      pop\n      swap1\n      pop\n    tag_84:\n      pop\n        /* \"contracts/3_MultiSigWallet.sol\":2027:2172  Transaction(... */\n      dup2\n      mstore\n      0x20\n      add\n        /* \"contracts/3_MultiSigWallet.sol\":2165:2170  false */\n      0x00\n        /* \"contracts/3_MultiSigWallet.sol\":2027:2172  Transaction(... */\n      iszero\n      iszero\n      dup2\n      mstore\n      pop\n        /* \"contracts/3_MultiSigWallet.sol\":1994:2006  transactions */\n      0x04\n        /* \"contracts/3_MultiSigWallet.sol\":1994:2024  transactions[newTransactionId] */\n      0x00\n        /* \"contracts/3_MultiSigWallet.sol\":2007:2023  newTransactionId */\n      dup4\n        /* \"contracts/3_MultiSigWallet.sol\":1994:2024  transactions[newTransactionId] */\n      dup2\n      mstore\n      0x20\n      add\n      swap1\n      dup2\n      mstore\n      0x20\n      add\n      0x00\n      keccak256\n        /* \"contracts/3_MultiSigWallet.sol\":1994:2172  transactions[newTransactionId] = Transaction(... */\n      0x00\n      dup3\n      add\n      mload\n      dup2\n      0x00\n      add\n      sstore\n      0x20\n      dup3\n      add\n      mload\n      dup2\n      0x01\n      add\n      exp(0x0100, 0x00)\n      dup2\n      sload\n      dup2\n      0xffffffffffffffffffffffffffffffffffffffff\n      mul\n      not\n      and\n      swap1\n      dup4\n      0xffffffffffffffffffffffffffffffffffffffff\n      and\n      mul\n      or\n      swap1\n      sstore\n      pop\n      0x40\n      dup3\n      add\n      mload\n      dup2\n      0x02\n      add\n      sstore\n      0x60\n      dup3\n      add\n      mload\n      dup2\n      0x03\n      add\n      sstore\n      0x80\n      dup3\n      add\n      mload\n      dup2\n      0x04\n      add\n      swap1\n      dup1\n      mload\n      swap1\n      0x20\n      add\n      swap1\n      tag_85\n      swap3\n      swap2\n      swap1\n      tag_86\n      jump\t// in\n    tag_85:\n      pop\n      0xa0\n      dup3\n      add\n      mload\n      dup2\n      0x05\n      add\n      exp(0x0100, 0x00)\n      dup2\n      sload\n      dup2\n      0xff\n      mul\n      not\n      and\n      swap1\n      dup4\n      iszero\n      iszero\n      mul\n      or\n      swap1\n      sstore\n      pop\n      swap1\n      pop\n      pop\n        /* \"contracts/3_MultiSigWallet.sol\":2226:2238  _destination */\n      dup3\n        /* \"contracts/3_MultiSigWallet.sol\":2188:2248  TransactionProposed(newTransactionId, _destination, _amount) */\n      0xffffffffffffffffffffffffffffffffffffffff\n      and\n        /* \"contracts/3_MultiSigWallet.sol\":2208:2224  newTransactionId */\n      dup2\n        /* \"contracts/3_MultiSigWallet.sol\":2188:2248  TransactionProposed(newTransactionId, _destination, _amount) */\n      0x34c1492f2b30aac2446b0b2de2e32501ff4742f7196db5ed9e0ddd6b7d7b25cf\n        /* \"contracts/3_MultiSigWallet.sol\":2240:2247  _amount */\n      dup5\n        /* \"contracts/3_MultiSigWallet.sol\":2188:2248  TransactionProposed(newTransactionId, _destination, _amount) */\n      mload(0x40)\n      tag_87\n      swap2\n      swap1\n      tag_15\n      jump\t// in\n    tag_87:\n      mload(0x40)\n      dup1\n      swap2\n      sub\n      swap1\n      log3\n        /* \"contracts/3_MultiSigWallet.sol\":1925:2255  {... */\n      pop\n        /* \"contracts/3_MultiSigWallet.sol\":1838:2255  function proposeTransaction(address _destination, uint256 _amount) external onlyOwners {... */\n      pop\n      pop\n      jump\t// out\n        /* \"contracts/3_MultiSigWallet.sol\":3123:3817  function executeTransaction(uint256 _transactionId) internal validTransaction(_transactionId) {... */\n    tag_73:\n        /* \"contracts/3_MultiSigWallet.sol\":3201:3215  _transactionId */\n      dup1\n        /* \"contracts/3_MultiSigWallet.sol\":1380:1400  transactionIdCounter */\n      sload(0x03)\n        /* \"contracts/3_MultiSigWallet.sol\":1362:1376  _transactionId */\n      dup2\n        /* \"contracts/3_MultiSigWallet.sol\":1362:1400  _transactionId <= transactionIdCounter */\n      gt\n      iszero\n        /* \"contracts/3_MultiSigWallet.sol\":1354:1427  require(_transactionId <= transactionIdCounter, \"Invalid transaction ID\") */\n      tag_89\n      jumpi\n      mload(0x40)\n      0x08c379a000000000000000000000000000000000000000000000000000000000\n      dup2\n      mstore\n      0x04\n      add\n      tag_90\n      swap1\n      tag_52\n      jump\t// in\n    tag_90:\n      mload(0x40)\n      dup1\n      swap2\n      sub\n      swap1\n      revert\n    tag_89:\n        /* \"contracts/3_MultiSigWallet.sol\":1446:1458  transactions */\n      0x04\n        /* \"contracts/3_MultiSigWallet.sol\":1446:1474  transactions[_transactionId] */\n      0x00\n        /* \"contracts/3_MultiSigWallet.sol\":1459:1473  _transactionId */\n      dup3\n        /* \"contracts/3_MultiSigWallet.sol\":1446:1474  transactions[_transactionId] */\n      dup2\n      mstore\n      0x20\n      add\n      swap1\n      dup2\n      mstore\n      0x20\n      add\n      0x00\n      keccak256\n        /* \"contracts/3_MultiSigWallet.sol\":1446:1483  transactions[_transactionId].executed */\n      0x05\n      add\n      0x00\n      swap1\n      sload\n      swap1\n      0x0100\n      exp\n      swap1\n      div\n      0xff\n      and\n        /* \"contracts/3_MultiSigWallet.sol\":1445:1483  !transactions[_transactionId].executed */\n      iszero\n        /* \"contracts/3_MultiSigWallet.sol\":1437:1516  require(!transactions[_transactionId].executed, \"Transaction already executed\") */\n      tag_91\n      jumpi\n      mload(0x40)\n      0x08c379a000000000000000000000000000000000000000000000000000000000\n      dup2\n      mstore\n      0x04\n      add\n      tag_92\n      swap1\n      tag_55\n      jump\t// in\n    tag_92:\n      mload(0x40)\n      dup1\n      swap2\n      sub\n      swap1\n      revert\n    tag_91:\n        /* \"contracts/3_MultiSigWallet.sol\":3227:3258  Transaction storage transaction */\n      0x00\n        /* \"contracts/3_MultiSigWallet.sol\":3261:3273  transactions */\n      0x04\n        /* \"contracts/3_MultiSigWallet.sol\":3261:3289  transactions[_transactionId] */\n      0x00\n        /* \"contracts/3_MultiSigWallet.sol\":3274:3288  _transactionId */\n      dup5\n        /* \"contracts/3_MultiSigWallet.sol\":3261:3289  transactions[_transactionId] */\n      dup2\n      mstore\n      0x20\n      add\n      swap1\n      dup2\n      mstore\n      0x20\n      add\n      0x00\n      keccak256\n        /* \"contracts/3_MultiSigWallet.sol\":3227:3289  Transaction storage transaction = transactions[_transactionId] */\n      swap1\n      pop\n        /* \"contracts/3_MultiSigWallet.sol\":3331:3332  2 */\n      0x02\n        /* \"contracts/3_MultiSigWallet.sol\":3306:3317  transaction */\n      dup2\n        /* \"contracts/3_MultiSigWallet.sol\":3306:3327  transaction.approvals */\n      0x03\n      add\n      sload\n        /* \"contracts/3_MultiSigWallet.sol\":3306:3332  transaction.approvals >= 2 */\n      lt\n      iszero\n        /* \"contracts/3_MultiSigWallet.sol\":3298:3357  require(transaction.approvals >= 2, \"Not enough approvals\") */\n      tag_94\n      jumpi\n      mload(0x40)\n      0x08c379a000000000000000000000000000000000000000000000000000000000\n      dup2\n      mstore\n      0x04\n      add\n      tag_95\n      swap1\n      tag_96\n      jump\t// in\n    tag_95:\n      mload(0x40)\n      dup1\n      swap2\n      sub\n      swap1\n      revert\n    tag_94:\n        /* \"contracts/3_MultiSigWallet.sol\":3467:3478  transaction */\n      dup1\n        /* \"contracts/3_MultiSigWallet.sol\":3467:3485  transaction.amount */\n      0x02\n      add\n      sload\n        /* \"contracts/3_MultiSigWallet.sol\":3442:3463  address(this).balance */\n      selfbalance\n        /* \"contracts/3_MultiSigWallet.sol\":3442:3485  address(this).balance >= transaction.amount */\n      lt\n      iszero\n        /* \"contracts/3_MultiSigWallet.sol\":3421:3543  require(... */\n      tag_97\n      jumpi\n      mload(0x40)\n      0x08c379a000000000000000000000000000000000000000000000000000000000\n      dup2\n      mstore\n      0x04\n      add\n      tag_98\n      swap1\n      tag_99\n      jump\t// in\n    tag_98:\n      mload(0x40)\n      dup1\n      swap2\n      sub\n      swap1\n      revert\n    tag_97:\n        /* \"contracts/3_MultiSigWallet.sol\":3555:3567  bool success */\n      0x00\n        /* \"contracts/3_MultiSigWallet.sol\":3573:3584  transaction */\n      dup2\n        /* \"contracts/3_MultiSigWallet.sol\":3573:3596  transaction.destination */\n      0x01\n      add\n      0x00\n      swap1\n      sload\n      swap1\n      0x0100\n      exp\n      swap1\n      div\n      0xffffffffffffffffffffffffffffffffffffffff\n      and\n        /* \"contracts/3_MultiSigWallet.sol\":3573:3601  transaction.destination.call */\n      0xffffffffffffffffffffffffffffffffffffffff\n      and\n        /* \"contracts/3_MultiSigWallet.sol\":3609:3620  transaction */\n      dup3\n        /* \"contracts/3_MultiSigWallet.sol\":3609:3627  transaction.amount */\n      0x02\n      add\n      sload\n        /* \"contracts/3_MultiSigWallet.sol\":3573:3632  transaction.destination.call{value: transaction.amount}(\"\") */\n      mload(0x40)\n      tag_100\n      swap1\n      tag_101\n      jump\t// in\n    tag_100:\n      0x00\n      mload(0x40)\n      dup1\n      dup4\n      sub\n      dup2\n      dup6\n      dup8\n      gas\n      call\n      swap3\n      pop\n      pop\n      pop\n      returndatasize\n      dup1\n      0x00\n      dup2\n      eq\n      tag_104\n      jumpi\n      mload(0x40)\n      swap2\n      pop\n      and(add(returndatasize, 0x3f), not(0x1f))\n      dup3\n      add\n      0x40\n      mstore\n      returndatasize\n      dup3\n      mstore\n      returndatasize\n      0x00\n      0x20\n      dup5\n      add\n      returndatacopy\n      jump(tag_103)\n    tag_104:\n      0x60\n      swap2\n      pop\n    tag_103:\n      pop\n        /* \"contracts/3_MultiSigWallet.sol\":3554:3632  (bool success, ) = transaction.destination.call{value: transaction.amount}(\"\") */\n      pop\n      swap1\n      pop\n        /* \"contracts/3_MultiSigWallet.sol\":3650:3657  success */\n      dup1\n        /* \"contracts/3_MultiSigWallet.sol\":3642:3677  require(success, \"Transfer failed\") */\n      tag_105\n      jumpi\n      mload(0x40)\n      0x08c379a000000000000000000000000000000000000000000000000000000000\n      dup2\n      mstore\n      0x04\n      add\n      tag_106\n      swap1\n      tag_107\n      jump\t// in\n    tag_106:\n      mload(0x40)\n      dup1\n      swap2\n      sub\n      swap1\n      revert\n    tag_105:\n        /* \"contracts/3_MultiSigWallet.sol\":3755:3759  true */\n      0x01\n        /* \"contracts/3_MultiSigWallet.sol\":3732:3743  transaction */\n      dup3\n        /* \"contracts/3_MultiSigWallet.sol\":3732:3752  transaction.executed */\n      0x05\n      add\n      0x00\n        /* \"contracts/3_MultiSigWallet.sol\":3732:3759  transaction.executed = true */\n      0x0100\n      exp\n      dup2\n      sload\n      dup2\n      0xff\n      mul\n      not\n      and\n      swap1\n      dup4\n      iszero\n      iszero\n      mul\n      or\n      swap1\n      sstore\n      pop\n        /* \"contracts/3_MultiSigWallet.sol\":3795:3809  _transactionId */\n      dup4\n        /* \"contracts/3_MultiSigWallet.sol\":3775:3810  TransactionExecuted(_transactionId) */\n      0x15ed165a284872ea7017f03df402a0cadfbfab588320ffaf83f160c2f82781c7\n      mload(0x40)\n      mload(0x40)\n      dup1\n      swap2\n      sub\n      swap1\n      log2\n        /* \"contracts/3_MultiSigWallet.sol\":3217:3817  {... */\n      pop\n      pop\n        /* \"contracts/3_MultiSigWallet.sol\":3123:3817  function executeTransaction(uint256 _transactionId) internal validTransaction(_transactionId) {... */\n      pop\n      pop\n      jump\t// out\n    tag_86:\n      dup3\n      dup1\n      sload\n      dup3\n      dup3\n      sstore\n      swap1\n      0x00\n      mstore\n      keccak256(0x00, 0x20)\n      swap1\n      dup2\n      add\n      swap3\n      dup3\n      iszero\n      tag_108\n      jumpi\n      swap2\n      0x20\n      mul\n      dup3\n      add\n    tag_109:\n      dup3\n      dup2\n      gt\n      iszero\n      tag_110\n      jumpi\n      dup3\n      mload\n      dup3\n      exp(0x0100, 0x00)\n      dup2\n      sload\n      dup2\n      0xffffffffffffffffffffffffffffffffffffffff\n      mul\n      not\n      and\n      swap1\n      dup4\n      0xffffffffffffffffffffffffffffffffffffffff\n      and\n      mul\n      or\n      swap1\n      sstore\n      pop\n      swap2\n      0x20\n      add\n      swap2\n      swap1\n      0x01\n      add\n      swap1\n      jump(tag_109)\n    tag_110:\n    tag_108:\n      pop\n      swap1\n      pop\n      tag_111\n      swap2\n      swap1\n      tag_112\n      jump\t// in\n    tag_111:\n      pop\n      swap1\n      jump\t// out\n    tag_112:\n    tag_113:\n      dup1\n      dup3\n      gt\n      iszero\n      tag_114\n      jumpi\n      0x00\n      dup2\n      0x00\n      swap1\n      sstore\n      pop\n      0x01\n      add\n      jump(tag_113)\n    tag_114:\n      pop\n      swap1\n      jump\t// out\n        /* \"#utility.yul\":7:84   */\n    tag_115:\n        /* \"#utility.yul\":44:51   */\n      0x00\n        /* \"#utility.yul\":73:78   */\n      dup2\n        /* \"#utility.yul\":62:78   */\n      swap1\n      pop\n        /* \"#utility.yul\":7:84   */\n      swap2\n      swap1\n      pop\n      jump\t// out\n        /* \"#utility.yul\":90:208   */\n    tag_116:\n        /* \"#utility.yul\":177:201   */\n      tag_151\n        /* \"#utility.yul\":195:200   */\n      dup2\n        /* \"#utility.yul\":177:201   */\n      tag_115\n      jump\t// in\n    tag_151:\n        /* \"#utility.yul\":172:175   */\n      dup3\n        /* \"#utility.yul\":165:202   */\n      mstore\n        /* \"#utility.yul\":90:208   */\n      pop\n      pop\n      jump\t// out\n        /* \"#utility.yul\":214:436   */\n    tag_15:\n        /* \"#utility.yul\":307:311   */\n      0x00\n        /* \"#utility.yul\":345:347   */\n      0x20\n        /* \"#utility.yul\":334:343   */\n      dup3\n        /* \"#utility.yul\":330:348   */\n      add\n        /* \"#utility.yul\":322:348   */\n      swap1\n      pop\n        /* \"#utility.yul\":358:429   */\n      tag_153\n        /* \"#utility.yul\":426:427   */\n      0x00\n        /* \"#utility.yul\":415:424   */\n      dup4\n        /* \"#utility.yul\":411:428   */\n      add\n        /* \"#utility.yul\":402:408   */\n      dup5\n        /* \"#utility.yul\":358:429   */\n      tag_116\n      jump\t// in\n    tag_153:\n        /* \"#utility.yul\":214:436   */\n      swap3\n      swap2\n      pop\n      pop\n      jump\t// out\n        /* \"#utility.yul\":523:640   */\n    tag_118:\n        /* \"#utility.yul\":632:633   */\n      0x00\n        /* \"#utility.yul\":629:630   */\n      dup1\n        /* \"#utility.yul\":622:634   */\n      revert\n        /* \"#utility.yul\":769:891   */\n    tag_120:\n        /* \"#utility.yul\":842:866   */\n      tag_158\n        /* \"#utility.yul\":860:865   */\n      dup2\n        /* \"#utility.yul\":842:866   */\n      tag_115\n      jump\t// in\n    tag_158:\n        /* \"#utility.yul\":835:840   */\n      dup2\n        /* \"#utility.yul\":832:867   */\n      eq\n        /* \"#utility.yul\":822:885   */\n      tag_159\n      jumpi\n        /* \"#utility.yul\":881:882   */\n      0x00\n        /* \"#utility.yul\":878:879   */\n      dup1\n        /* \"#utility.yul\":871:883   */\n      revert\n        /* \"#utility.yul\":822:885   */\n    tag_159:\n        /* \"#utility.yul\":769:891   */\n      pop\n      jump\t// out\n        /* \"#utility.yul\":897:1036   */\n    tag_121:\n        /* \"#utility.yul\":943:948   */\n      0x00\n        /* \"#utility.yul\":981:987   */\n      dup2\n        /* \"#utility.yul\":968:988   */\n      calldataload\n        /* \"#utility.yul\":959:988   */\n      swap1\n      pop\n        /* \"#utility.yul\":997:1030   */\n      tag_161\n        /* \"#utility.yul\":1024:1029   */\n      dup2\n        /* \"#utility.yul\":997:1030   */\n      tag_120\n      jump\t// in\n    tag_161:\n        /* \"#utility.yul\":897:1036   */\n      swap3\n      swap2\n      pop\n      pop\n      jump\t// out\n        /* \"#utility.yul\":1042:1371   */\n    tag_21:\n        /* \"#utility.yul\":1101:1107   */\n      0x00\n        /* \"#utility.yul\":1150:1152   */\n      0x20\n        /* \"#utility.yul\":1138:1147   */\n      dup3\n        /* \"#utility.yul\":1129:1136   */\n      dup5\n        /* \"#utility.yul\":1125:1148   */\n      sub\n        /* \"#utility.yul\":1121:1153   */\n      slt\n        /* \"#utility.yul\":1118:1237   */\n      iszero\n      tag_163\n      jumpi\n        /* \"#utility.yul\":1156:1235   */\n      tag_164\n      tag_118\n      jump\t// in\n    tag_164:\n        /* \"#utility.yul\":1118:1237   */\n    tag_163:\n        /* \"#utility.yul\":1276:1277   */\n      0x00\n        /* \"#utility.yul\":1301:1354   */\n      tag_165\n        /* \"#utility.yul\":1346:1353   */\n      dup5\n        /* \"#utility.yul\":1337:1343   */\n      dup3\n        /* \"#utility.yul\":1326:1335   */\n      dup6\n        /* \"#utility.yul\":1322:1344   */\n      add\n        /* \"#utility.yul\":1301:1354   */\n      tag_121\n      jump\t// in\n    tag_165:\n        /* \"#utility.yul\":1291:1354   */\n      swap2\n      pop\n        /* \"#utility.yul\":1247:1364   */\n      pop\n        /* \"#utility.yul\":1042:1371   */\n      swap3\n      swap2\n      pop\n      pop\n      jump\t// out\n        /* \"#utility.yul\":1377:1503   */\n    tag_122:\n        /* \"#utility.yul\":1414:1421   */\n      0x00\n        /* \"#utility.yul\":1454:1496   */\n      0xffffffffffffffffffffffffffffffffffffffff\n        /* \"#utility.yul\":1447:1452   */\n      dup3\n        /* \"#utility.yul\":1443:1497   */\n      and\n        /* \"#utility.yul\":1432:1497   */\n      swap1\n      pop\n        /* \"#utility.yul\":1377:1503   */\n      swap2\n      swap1\n      pop\n      jump\t// out\n        /* \"#utility.yul\":1509:1605   */\n    tag_123:\n        /* \"#utility.yul\":1546:1553   */\n      0x00\n        /* \"#utility.yul\":1575:1599   */\n      tag_168\n        /* \"#utility.yul\":1593:1598   */\n      dup3\n        /* \"#utility.yul\":1575:1599   */\n      tag_122\n      jump\t// in\n    tag_168:\n        /* \"#utility.yul\":1564:1599   */\n      swap1\n      pop\n        /* \"#utility.yul\":1509:1605   */\n      swap2\n      swap1\n      pop\n      jump\t// out\n        /* \"#utility.yul\":1611:1729   */\n    tag_124:\n        /* \"#utility.yul\":1698:1722   */\n      tag_170\n        /* \"#utility.yul\":1716:1721   */\n      dup2\n        /* \"#utility.yul\":1698:1722   */\n      tag_123\n      jump\t// in\n    tag_170:\n        /* \"#utility.yul\":1693:1696   */\n      dup3\n        /* \"#utility.yul\":1686:1723   */\n      mstore\n        /* \"#utility.yul\":1611:1729   */\n      pop\n      pop\n      jump\t// out\n        /* \"#utility.yul\":1735:1957   */\n    tag_26:\n        /* \"#utility.yul\":1828:1832   */\n      0x00\n        /* \"#utility.yul\":1866:1868   */\n      0x20\n        /* \"#utility.yul\":1855:1864   */\n      dup3\n        /* \"#utility.yul\":1851:1869   */\n      add\n        /* \"#utility.yul\":1843:1869   */\n      swap1\n      pop\n        /* \"#utility.yul\":1879:1950   */\n      tag_172\n        /* \"#utility.yul\":1947:1948   */\n      0x00\n        /* \"#utility.yul\":1936:1945   */\n      dup4\n        /* \"#utility.yul\":1932:1949   */\n      add\n        /* \"#utility.yul\":1923:1929   */\n      dup5\n        /* \"#utility.yul\":1879:1950   */\n      tag_124\n      jump\t// in\n    tag_172:\n        /* \"#utility.yul\":1735:1957   */\n      swap3\n      swap2\n      pop\n      pop\n      jump\t// out\n        /* \"#utility.yul\":1963:2053   */\n    tag_125:\n        /* \"#utility.yul\":1997:2004   */\n      0x00\n        /* \"#utility.yul\":2040:2045   */\n      dup2\n        /* \"#utility.yul\":2033:2046   */\n      iszero\n        /* \"#utility.yul\":2026:2047   */\n      iszero\n        /* \"#utility.yul\":2015:2047   */\n      swap1\n      pop\n        /* \"#utility.yul\":1963:2053   */\n      swap2\n      swap1\n      pop\n      jump\t// out\n        /* \"#utility.yul\":2059:2168   */\n    tag_126:\n        /* \"#utility.yul\":2140:2161   */\n      tag_175\n        /* \"#utility.yul\":2155:2160   */\n      dup2\n        /* \"#utility.yul\":2140:2161   */\n      tag_125\n      jump\t// in\n    tag_175:\n        /* \"#utility.yul\":2135:2138   */\n      dup3\n        /* \"#utility.yul\":2128:2162   */\n      mstore\n        /* \"#utility.yul\":2059:2168   */\n      pop\n      pop\n      jump\t// out\n        /* \"#utility.yul\":2174:2826   */\n    tag_34:\n        /* \"#utility.yul\":2373:2377   */\n      0x00\n        /* \"#utility.yul\":2411:2414   */\n      0xa0\n        /* \"#utility.yul\":2400:2409   */\n      dup3\n        /* \"#utility.yul\":2396:2415   */\n      add\n        /* \"#utility.yul\":2388:2415   */\n      swap1\n      pop\n        /* \"#utility.yul\":2425:2496   */\n      tag_177\n        /* \"#utility.yul\":2493:2494   */\n      0x00\n        /* \"#utility.yul\":2482:2491   */\n      dup4\n        /* \"#utility.yul\":2478:2495   */\n      add\n        /* \"#utility.yul\":2469:2475   */\n      dup9\n        /* \"#utility.yul\":2425:2496   */\n      tag_116\n      jump\t// in\n    tag_177:\n        /* \"#utility.yul\":2506:2578   */\n      tag_178\n        /* \"#utility.yul\":2574:2576   */\n      0x20\n        /* \"#utility.yul\":2563:2572   */\n      dup4\n        /* \"#utility.yul\":2559:2577   */\n      add\n        /* \"#utility.yul\":2550:2556   */\n      dup8\n        /* \"#utility.yul\":2506:2578   */\n      tag_124\n      jump\t// in\n    tag_178:\n        /* \"#utility.yul\":2588:2660   */\n      tag_179\n        /* \"#utility.yul\":2656:2658   */\n      0x40\n        /* \"#utility.yul\":2645:2654   */\n      dup4\n        /* \"#utility.yul\":2641:2659   */\n      add\n        /* \"#utility.yul\":2632:2638   */\n      dup7\n        /* \"#utility.yul\":2588:2660   */\n      tag_116\n      jump\t// in\n    tag_179:\n        /* \"#utility.yul\":2670:2742   */\n      tag_180\n        /* \"#utility.yul\":2738:2740   */\n      0x60\n        /* \"#utility.yul\":2727:2736   */\n      dup4\n        /* \"#utility.yul\":2723:2741   */\n      add\n        /* \"#utility.yul\":2714:2720   */\n      dup6\n        /* \"#utility.yul\":2670:2742   */\n      tag_116\n      jump\t// in\n    tag_180:\n        /* \"#utility.yul\":2752:2819   */\n      tag_181\n        /* \"#utility.yul\":2814:2817   */\n      0x80\n        /* \"#utility.yul\":2803:2812   */\n      dup4\n        /* \"#utility.yul\":2799:2818   */\n      add\n        /* \"#utility.yul\":2790:2796   */\n      dup5\n        /* \"#utility.yul\":2752:2819   */\n      tag_126\n      jump\t// in\n    tag_181:\n        /* \"#utility.yul\":2174:2826   */\n      swap7\n      swap6\n      pop\n      pop\n      pop\n      pop\n      pop\n      pop\n      jump\t// out\n        /* \"#utility.yul\":2832:2954   */\n    tag_127:\n        /* \"#utility.yul\":2905:2929   */\n      tag_183\n        /* \"#utility.yul\":2923:2928   */\n      dup2\n        /* \"#utility.yul\":2905:2929   */\n      tag_123\n      jump\t// in\n    tag_183:\n        /* \"#utility.yul\":2898:2903   */\n      dup2\n        /* \"#utility.yul\":2895:2930   */\n      eq\n        /* \"#utility.yul\":2885:2948   */\n      tag_184\n      jumpi\n        /* \"#utility.yul\":2944:2945   */\n      0x00\n        /* \"#utility.yul\":2941:2942   */\n      dup1\n        /* \"#utility.yul\":2934:2946   */\n      revert\n        /* \"#utility.yul\":2885:2948   */\n    tag_184:\n        /* \"#utility.yul\":2832:2954   */\n      pop\n      jump\t// out\n        /* \"#utility.yul\":2960:3099   */\n    tag_128:\n        /* \"#utility.yul\":3006:3011   */\n      0x00\n        /* \"#utility.yul\":3044:3050   */\n      dup2\n        /* \"#utility.yul\":3031:3051   */\n      calldataload\n        /* \"#utility.yul\":3022:3051   */\n      swap1\n      pop\n        /* \"#utility.yul\":3060:3093   */\n      tag_186\n        /* \"#utility.yul\":3087:3092   */\n      dup2\n        /* \"#utility.yul\":3060:3093   */\n      tag_127\n      jump\t// in\n    tag_186:\n        /* \"#utility.yul\":2960:3099   */\n      swap3\n      swap2\n      pop\n      pop\n      jump\t// out\n        /* \"#utility.yul\":3105:3579   */\n    tag_40:\n        /* \"#utility.yul\":3173:3179   */\n      0x00\n        /* \"#utility.yul\":3181:3187   */\n      dup1\n        /* \"#utility.yul\":3230:3232   */\n      0x40\n        /* \"#utility.yul\":3218:3227   */\n      dup4\n        /* \"#utility.yul\":3209:3216   */\n      dup6\n        /* \"#utility.yul\":3205:3228   */\n      sub\n        /* \"#utility.yul\":3201:3233   */\n      slt\n        /* \"#utility.yul\":3198:3317   */\n      iszero\n      tag_188\n      jumpi\n        /* \"#utility.yul\":3236:3315   */\n      tag_189\n      tag_118\n      jump\t// in\n    tag_189:\n        /* \"#utility.yul\":3198:3317   */\n    tag_188:\n        /* \"#utility.yul\":3356:3357   */\n      0x00\n        /* \"#utility.yul\":3381:3434   */\n      tag_190\n        /* \"#utility.yul\":3426:3433   */\n      dup6\n        /* \"#utility.yul\":3417:3423   */\n      dup3\n        /* \"#utility.yul\":3406:3415   */\n      dup7\n        /* \"#utility.yul\":3402:3424   */\n      add\n        /* \"#utility.yul\":3381:3434   */\n      tag_128\n      jump\t// in\n    tag_190:\n        /* \"#utility.yul\":3371:3434   */\n      swap3\n      pop\n        /* \"#utility.yul\":3327:3444   */\n      pop\n        /* \"#utility.yul\":3483:3485   */\n      0x20\n        /* \"#utility.yul\":3509:3562   */\n      tag_191\n        /* \"#utility.yul\":3554:3561   */\n      dup6\n        /* \"#utility.yul\":3545:3551   */\n      dup3\n        /* \"#utility.yul\":3534:3543   */\n      dup7\n        /* \"#utility.yul\":3530:3552   */\n      add\n        /* \"#utility.yul\":3509:3562   */\n      tag_121\n      jump\t// in\n    tag_191:\n        /* \"#utility.yul\":3499:3562   */\n      swap2\n      pop\n        /* \"#utility.yul\":3454:3572   */\n      pop\n        /* \"#utility.yul\":3105:3579   */\n      swap3\n      pop\n      swap3\n      swap1\n      pop\n      jump\t// out\n        /* \"#utility.yul\":3585:3754   */\n    tag_129:\n        /* \"#utility.yul\":3669:3680   */\n      0x00\n        /* \"#utility.yul\":3703:3709   */\n      dup3\n        /* \"#utility.yul\":3698:3701   */\n      dup3\n        /* \"#utility.yul\":3691:3710   */\n      mstore\n        /* \"#utility.yul\":3743:3747   */\n      0x20\n        /* \"#utility.yul\":3738:3741   */\n      dup3\n        /* \"#utility.yul\":3734:3748   */\n      add\n        /* \"#utility.yul\":3719:3748   */\n      swap1\n      pop\n        /* \"#utility.yul\":3585:3754   */\n      swap3\n      swap2\n      pop\n      pop\n      jump\t// out\n        /* \"#utility.yul\":3760:3922   */\n    tag_130:\n        /* \"#utility.yul\":3900:3914   */\n      0x4e6f7420616e206f776e65720000000000000000000000000000000000000000\n        /* \"#utility.yul\":3896:3897   */\n      0x00\n        /* \"#utility.yul\":3888:3894   */\n      dup3\n        /* \"#utility.yul\":3884:3898   */\n      add\n        /* \"#utility.yul\":3877:3915   */\n      mstore\n        /* \"#utility.yul\":3760:3922   */\n      pop\n      jump\t// out\n        /* \"#utility.yul\":3928:4294   */\n    tag_131:\n        /* \"#utility.yul\":4070:4073   */\n      0x00\n        /* \"#utility.yul\":4091:4158   */\n      tag_195\n        /* \"#utility.yul\":4155:4157   */\n      0x0c\n        /* \"#utility.yul\":4150:4153   */\n      dup4\n        /* \"#utility.yul\":4091:4158   */\n      tag_129\n      jump\t// in\n    tag_195:\n        /* \"#utility.yul\":4084:4158   */\n      swap2\n      pop\n        /* \"#utility.yul\":4167:4260   */\n      tag_196\n        /* \"#utility.yul\":4256:4259   */\n      dup3\n        /* \"#utility.yul\":4167:4260   */\n      tag_130\n      jump\t// in\n    tag_196:\n        /* \"#utility.yul\":4285:4287   */\n      0x20\n        /* \"#utility.yul\":4280:4283   */\n      dup3\n        /* \"#utility.yul\":4276:4288   */\n      add\n        /* \"#utility.yul\":4269:4288   */\n      swap1\n      pop\n        /* \"#utility.yul\":3928:4294   */\n      swap2\n      swap1\n      pop\n      jump\t// out\n        /* \"#utility.yul\":4300:4719   */\n    tag_48:\n        /* \"#utility.yul\":4466:4470   */\n      0x00\n        /* \"#utility.yul\":4504:4506   */\n      0x20\n        /* \"#utility.yul\":4493:4502   */\n      dup3\n        /* \"#utility.yul\":4489:4507   */\n      add\n        /* \"#utility.yul\":4481:4507   */\n      swap1\n      pop\n        /* \"#utility.yul\":4553:4562   */\n      dup2\n        /* \"#utility.yul\":4547:4551   */\n      dup2\n        /* \"#utility.yul\":4543:4563   */\n      sub\n        /* \"#utility.yul\":4539:4540   */\n      0x00\n        /* \"#utility.yul\":4528:4537   */\n      dup4\n        /* \"#utility.yul\":4524:4541   */\n      add\n        /* \"#utility.yul\":4517:4564   */\n      mstore\n        /* \"#utility.yul\":4581:4712   */\n      tag_198\n        /* \"#utility.yul\":4707:4711   */\n      dup2\n        /* \"#utility.yul\":4581:4712   */\n      tag_131\n      jump\t// in\n    tag_198:\n        /* \"#utility.yul\":4573:4712   */\n      swap1\n      pop\n        /* \"#utility.yul\":4300:4719   */\n      swap2\n      swap1\n      pop\n      jump\t// out\n        /* \"#utility.yul\":4725:4897   */\n    tag_132:\n        /* \"#utility.yul\":4865:4889   */\n      0x496e76616c6964207472616e73616374696f6e20494400000000000000000000\n        /* \"#utility.yul\":4861:4862   */\n      0x00\n        /* \"#utility.yul\":4853:4859   */\n      dup3\n        /* \"#utility.yul\":4849:4863   */\n      add\n        /* \"#utility.yul\":4842:4890   */\n      mstore\n        /* \"#utility.yul\":4725:4897   */\n      pop\n      jump\t// out\n        /* \"#utility.yul\":4903:5269   */\n    tag_133:\n        /* \"#utility.yul\":5045:5048   */\n      0x00\n        /* \"#utility.yul\":5066:5133   */\n      tag_201\n        /* \"#utility.yul\":5130:5132   */\n      0x16\n        /* \"#utility.yul\":5125:5128   */\n      dup4\n        /* \"#utility.yul\":5066:5133   */\n      tag_129\n      jump\t// in\n    tag_201:\n        /* \"#utility.yul\":5059:5133   */\n      swap2\n      pop\n        /* \"#utility.yul\":5142:5235   */\n      tag_202\n        /* \"#utility.yul\":5231:5234   */\n      dup3\n        /* \"#utility.yul\":5142:5235   */\n      tag_132\n      jump\t// in\n    tag_202:\n        /* \"#utility.yul\":5260:5262   */\n      0x20\n        /* \"#utility.yul\":5255:5258   */\n      dup3\n        /* \"#utility.yul\":5251:5263   */\n      add\n        /* \"#utility.yul\":5244:5263   */\n      swap1\n      pop\n        /* \"#utility.yul\":4903:5269   */\n      swap2\n      swap1\n      pop\n      jump\t// out\n        /* \"#utility.yul\":5275:5694   */\n    tag_52:\n        /* \"#utility.yul\":5441:5445   */\n      0x00\n        /* \"#utility.yul\":5479:5481   */\n      0x20\n        /* \"#utility.yul\":5468:5477   */\n      dup3\n        /* \"#utility.yul\":5464:5482   */\n      add\n        /* \"#utility.yul\":5456:5482   */\n      swap1\n      pop\n        /* \"#utility.yul\":5528:5537   */\n      dup2\n        /* \"#utility.yul\":5522:5526   */\n      dup2\n        /* \"#utility.yul\":5518:5538   */\n      sub\n        /* \"#utility.yul\":5514:5515   */\n      0x00\n        /* \"#utility.yul\":5503:5512   */\n      dup4\n        /* \"#utility.yul\":5499:5516   */\n      add\n        /* \"#utility.yul\":5492:5539   */\n      mstore\n        /* \"#utility.yul\":5556:5687   */\n      tag_204\n        /* \"#utility.yul\":5682:5686   */\n      dup2\n        /* \"#utility.yul\":5556:5687   */\n      tag_133\n      jump\t// in\n    tag_204:\n        /* \"#utility.yul\":5548:5687   */\n      swap1\n      pop\n        /* \"#utility.yul\":5275:5694   */\n      swap2\n      swap1\n      pop\n      jump\t// out\n        /* \"#utility.yul\":5700:5878   */\n    tag_134:\n        /* \"#utility.yul\":5840:5870   */\n      0x5472616e73616374696f6e20616c726561647920657865637574656400000000\n        /* \"#utility.yul\":5836:5837   */\n      0x00\n        /* \"#utility.yul\":5828:5834   */\n      dup3\n        /* \"#utility.yul\":5824:5838   */\n      add\n        /* \"#utility.yul\":5817:5871   */\n      mstore\n        /* \"#utility.yul\":5700:5878   */\n      pop\n      jump\t// out\n        /* \"#utility.yul\":5884:6250   */\n    tag_135:\n        /* \"#utility.yul\":6026:6029   */\n      0x00\n        /* \"#utility.yul\":6047:6114   */\n      tag_207\n        /* \"#utility.yul\":6111:6113   */\n      0x1c\n        /* \"#utility.yul\":6106:6109   */\n      dup4\n        /* \"#utility.yul\":6047:6114   */\n      tag_129\n      jump\t// in\n    tag_207:\n        /* \"#utility.yul\":6040:6114   */\n      swap2\n      pop\n        /* \"#utility.yul\":6123:6216   */\n      tag_208\n        /* \"#utility.yul\":6212:6215   */\n      dup3\n        /* \"#utility.yul\":6123:6216   */\n      tag_134\n      jump\t// in\n    tag_208:\n        /* \"#utility.yul\":6241:6243   */\n      0x20\n        /* \"#utility.yul\":6236:6239   */\n      dup3\n        /* \"#utility.yul\":6232:6244   */\n      add\n        /* \"#utility.yul\":6225:6244   */\n      swap1\n      pop\n        /* \"#utility.yul\":5884:6250   */\n      swap2\n      swap1\n      pop\n      jump\t// out\n        /* \"#utility.yul\":6256:6675   */\n    tag_55:\n        /* \"#utility.yul\":6422:6426   */\n      0x00\n        /* \"#utility.yul\":6460:6462   */\n      0x20\n        /* \"#utility.yul\":6449:6458   */\n      dup3\n        /* \"#utility.yul\":6445:6463   */\n      add\n        /* \"#utility.yul\":6437:6463   */\n      swap1\n      pop\n        /* \"#utility.yul\":6509:6518   */\n      dup2\n        /* \"#utility.yul\":6503:6507   */\n      dup2\n        /* \"#utility.yul\":6499:6519   */\n      sub\n        /* \"#utility.yul\":6495:6496   */\n      0x00\n        /* \"#utility.yul\":6484:6493   */\n      dup4\n        /* \"#utility.yul\":6480:6497   */\n      add\n        /* \"#utility.yul\":6473:6520   */\n      mstore\n        /* \"#utility.yul\":6537:6668   */\n      tag_210\n        /* \"#utility.yul\":6663:6667   */\n      dup2\n        /* \"#utility.yul\":6537:6668   */\n      tag_135\n      jump\t// in\n    tag_210:\n        /* \"#utility.yul\":6529:6668   */\n      swap1\n      pop\n        /* \"#utility.yul\":6256:6675   */\n      swap2\n      swap1\n      pop\n      jump\t// out\n        /* \"#utility.yul\":6681:6861   */\n    tag_62:\n        /* \"#utility.yul\":6729:6806   */\n      0x4e487b7100000000000000000000000000000000000000000000000000000000\n        /* \"#utility.yul\":6726:6727   */\n      0x00\n        /* \"#utility.yul\":6719:6807   */\n      mstore\n        /* \"#utility.yul\":6826:6830   */\n      0x32\n        /* \"#utility.yul\":6823:6824   */\n      0x04\n        /* \"#utility.yul\":6816:6831   */\n      mstore\n        /* \"#utility.yul\":6850:6854   */\n      0x24\n        /* \"#utility.yul\":6847:6848   */\n      0x00\n        /* \"#utility.yul\":6840:6855   */\n      revert\n        /* \"#utility.yul\":6867:7033   */\n    tag_136:\n        /* \"#utility.yul\":7007:7025   */\n      0x416c726561647920617070726f76656400000000000000000000000000000000\n        /* \"#utility.yul\":7003:7004   */\n      0x00\n        /* \"#utility.yul\":6995:7001   */\n      dup3\n        /* \"#utility.yul\":6991:7005   */\n      add\n        /* \"#utility.yul\":6984:7026   */\n      mstore\n        /* \"#utility.yul\":6867:7033   */\n      pop\n      jump\t// out\n        /* \"#utility.yul\":7039:7405   */\n    tag_137:\n        /* \"#utility.yul\":7181:7184   */\n      0x00\n        /* \"#utility.yul\":7202:7269   */\n      tag_214\n        /* \"#utility.yul\":7266:7268   */\n      0x10\n        /* \"#utility.yul\":7261:7264   */\n      dup4\n        /* \"#utility.yul\":7202:7269   */\n      tag_129\n      jump\t// in\n    tag_214:\n        /* \"#utility.yul\":7195:7269   */\n      swap2\n      pop\n        /* \"#utility.yul\":7278:7371   */\n      tag_215\n        /* \"#utility.yul\":7367:7370   */\n      dup3\n        /* \"#utility.yul\":7278:7371   */\n      tag_136\n      jump\t// in\n    tag_215:\n        /* \"#utility.yul\":7396:7398   */\n      0x20\n        /* \"#utility.yul\":7391:7394   */\n      dup3\n        /* \"#utility.yul\":7387:7399   */\n      add\n        /* \"#utility.yul\":7380:7399   */\n      swap1\n      pop\n        /* \"#utility.yul\":7039:7405   */\n      swap2\n      swap1\n      pop\n      jump\t// out\n        /* \"#utility.yul\":7411:7830   */\n    tag_67:\n        /* \"#utility.yul\":7577:7581   */\n      0x00\n        /* \"#utility.yul\":7615:7617   */\n      0x20\n        /* \"#utility.yul\":7604:7613   */\n      dup3\n        /* \"#utility.yul\":7600:7618   */\n      add\n        /* \"#utility.yul\":7592:7618   */\n      swap1\n      pop\n        /* \"#utility.yul\":7664:7673   */\n      dup2\n        /* \"#utility.yul\":7658:7662   */\n      dup2\n        /* \"#utility.yul\":7654:7674   */\n      sub\n        /* \"#utility.yul\":7650:7651   */\n      0x00\n        /* \"#utility.yul\":7639:7648   */\n      dup4\n        /* \"#utility.yul\":7635:7652   */\n      add\n        /* \"#utility.yul\":7628:7675   */\n      mstore\n        /* \"#utility.yul\":7692:7823   */\n      tag_217\n        /* \"#utility.yul\":7818:7822   */\n      dup2\n        /* \"#utility.yul\":7692:7823   */\n      tag_137\n      jump\t// in\n    tag_217:\n        /* \"#utility.yul\":7684:7823   */\n      swap1\n      pop\n        /* \"#utility.yul\":7411:7830   */\n      swap2\n      swap1\n      pop\n      jump\t// out\n        /* \"#utility.yul\":7836:8016   */\n    tag_138:\n        /* \"#utility.yul\":7884:7961   */\n      0x4e487b7100000000000000000000000000000000000000000000000000000000\n        /* \"#utility.yul\":7881:7882   */\n      0x00\n        /* \"#utility.yul\":7874:7962   */\n      mstore\n        /* \"#utility.yul\":7981:7985   */\n      0x11\n        /* \"#utility.yul\":7978:7979   */\n      0x04\n        /* \"#utility.yul\":7971:7986   */\n      mstore\n        /* \"#utility.yul\":8005:8009   */\n      0x24\n        /* \"#utility.yul\":8002:8003   */\n      0x00\n        /* \"#utility.yul\":7995:8010   */\n      revert\n        /* \"#utility.yul\":8022:8255   */\n    tag_70:\n        /* \"#utility.yul\":8061:8064   */\n      0x00\n        /* \"#utility.yul\":8084:8108   */\n      tag_220\n        /* \"#utility.yul\":8102:8107   */\n      dup3\n        /* \"#utility.yul\":8084:8108   */\n      tag_115\n      jump\t// in\n    tag_220:\n        /* \"#utility.yul\":8075:8108   */\n      swap2\n      pop\n        /* \"#utility.yul\":8130:8196   */\n      0xffffffffffffffffffffffffffffffffffffffffffffffffffffffffffffffff\n        /* \"#utility.yul\":8123:8128   */\n      dup3\n        /* \"#utility.yul\":8120:8197   */\n      sub\n        /* \"#utility.yul\":8117:8220   */\n      tag_221\n      jumpi\n        /* \"#utility.yul\":8200:8218   */\n      tag_222\n      tag_138\n      jump\t// in\n    tag_222:\n        /* \"#utility.yul\":8117:8220   */\n    tag_221:\n        /* \"#utility.yul\":8247:8248   */\n      0x01\n        /* \"#utility.yul\":8240:8245   */\n      dup3\n        /* \"#utility.yul\":8236:8249   */\n      add\n        /* \"#utility.yul\":8229:8249   */\n      swap1\n      pop\n        /* \"#utility.yul\":8022:8255   */\n      swap2\n      swap1\n      pop\n      jump\t// out\n        /* \"#utility.yul\":8261:8441   */\n    tag_83:\n        /* \"#utility.yul\":8309:8386   */\n      0x4e487b7100000000000000000000000000000000000000000000000000000000\n        /* \"#utility.yul\":8306:8307   */\n      0x00\n        /* \"#utility.yul\":8299:8387   */\n      mstore\n        /* \"#utility.yul\":8406:8410   */\n      0x41\n        /* \"#utility.yul\":8403:8404   */\n      0x04\n        /* \"#utility.yul\":8396:8411   */\n      mstore\n        /* \"#utility.yul\":8430:8434   */\n      0x24\n        /* \"#utility.yul\":8427:8428   */\n      0x00\n        /* \"#utility.yul\":8420:8435   */\n      revert\n        /* \"#utility.yul\":8447:8617   */\n    tag_139:\n        /* \"#utility.yul\":8587:8609   */\n      0x4e6f7420656e6f75676820617070726f76616c73000000000000000000000000\n        /* \"#utility.yul\":8583:8584   */\n      0x00\n        /* \"#utility.yul\":8575:8581   */\n      dup3\n        /* \"#utility.yul\":8571:8585   */\n      add\n        /* \"#utility.yul\":8564:8610   */\n      mstore\n        /* \"#utility.yul\":8447:8617   */\n      pop\n      jump\t// out\n        /* \"#utility.yul\":8623:8989   */\n    tag_140:\n        /* \"#utility.yul\":8765:8768   */\n      0x00\n        /* \"#utility.yul\":8786:8853   */\n      tag_226\n        /* \"#utility.yul\":8850:8852   */\n      0x14\n        /* \"#utility.yul\":8845:8848   */\n      dup4\n        /* \"#utility.yul\":8786:8853   */\n      tag_129\n      jump\t// in\n    tag_226:\n        /* \"#utility.yul\":8779:8853   */\n      swap2\n      pop\n        /* \"#utility.yul\":8862:8955   */\n      tag_227\n        /* \"#utility.yul\":8951:8954   */\n      dup3\n        /* \"#utility.yul\":8862:8955   */\n      tag_139\n      jump\t// in\n    tag_227:\n        /* \"#utility.yul\":8980:8982   */\n      0x20\n        /* \"#utility.yul\":8975:8978   */\n      dup3\n        /* \"#utility.yul\":8971:8983   */\n      add\n        /* \"#utility.yul\":8964:8983   */\n      swap1\n      pop\n        /* \"#utility.yul\":8623:8989   */\n      swap2\n      swap1\n      pop\n      jump\t// out\n        /* \"#utility.yul\":8995:9414   */\n    tag_96:\n        /* \"#utility.yul\":9161:9165   */\n      0x00\n        /* \"#utility.yul\":9199:9201   */\n      0x20\n        /* \"#utility.yul\":9188:9197   */\n      dup3\n        /* \"#utility.yul\":9184:9202   */\n      add\n        /* \"#utility.yul\":9176:9202   */\n      swap1\n      pop\n        /* \"#utility.yul\":9248:9257   */\n      dup2\n        /* \"#utility.yul\":9242:9246   */\n      dup2\n        /* \"#utility.yul\":9238:9258   */\n      sub\n        /* \"#utility.yul\":9234:9235   */\n      0x00\n        /* \"#utility.yul\":9223:9232   */\n      dup4\n        /* \"#utility.yul\":9219:9236   */\n      add\n        /* \"#utility.yul\":9212:9259   */\n      mstore\n        /* \"#utility.yul\":9276:9407   */\n      tag_229\n        /* \"#utility.yul\":9402:9406   */\n      dup2\n        /* \"#utility.yul\":9276:9407   */\n      tag_140\n      jump\t// in\n    tag_229:\n        /* \"#utility.yul\":9268:9407   */\n      swap1\n      pop\n        /* \"#utility.yul\":8995:9414   */\n      swap2\n      swap1\n      pop\n      jump\t// out\n        /* \"#utility.yul\":9420:9602   */\n    tag_141:\n        /* \"#utility.yul\":9560:9594   */\n      0x496e73756666696369656e742066756e647320696e207468652077616c6c6574\n        /* \"#utility.yul\":9556:9557   */\n      0x00\n        /* \"#utility.yul\":9548:9554   */\n      dup3\n        /* \"#utility.yul\":9544:9558   */\n      add\n        /* \"#utility.yul\":9537:9595   */\n      mstore\n        /* \"#utility.yul\":9420:9602   */\n      pop\n      jump\t// out\n        /* \"#utility.yul\":9608:9974   */\n    tag_142:\n        /* \"#utility.yul\":9750:9753   */\n      0x00\n        /* \"#utility.yul\":9771:9838   */\n      tag_232\n        /* \"#utility.yul\":9835:9837   */\n      0x20\n        /* \"#utility.yul\":9830:9833   */\n      dup4\n        /* \"#utility.yul\":9771:9838   */\n      tag_129\n      jump\t// in\n    tag_232:\n        /* \"#utility.yul\":9764:9838   */\n      swap2\n      pop\n        /* \"#utility.yul\":9847:9940   */\n      tag_233\n        /* \"#utility.yul\":9936:9939   */\n      dup3\n        /* \"#utility.yul\":9847:9940   */\n      tag_141\n      jump\t// in\n    tag_233:\n        /* \"#utility.yul\":9965:9967   */\n      0x20\n        /* \"#utility.yul\":9960:9963   */\n      dup3\n        /* \"#utility.yul\":9956:9968   */\n      add\n        /* \"#utility.yul\":9949:9968   */\n      swap1\n      pop\n        /* \"#utility.yul\":9608:9974   */\n      swap2\n      swap1\n      pop\n      jump\t// out\n        /* \"#utility.yul\":9980:10399   */\n    tag_99:\n        /* \"#utility.yul\":10146:10150   */\n      0x00\n        /* \"#utility.yul\":10184:10186   */\n      0x20\n        /* \"#utility.yul\":10173:10182   */\n      dup3\n        /* \"#utility.yul\":10169:10187   */\n      add\n        /* \"#utility.yul\":10161:10187   */\n      swap1\n      pop\n        /* \"#utility.yul\":10233:10242   */\n      dup2\n        /* \"#utility.yul\":10227:10231   */\n      dup2\n        /* \"#utility.yul\":10223:10243   */\n      sub\n        /* \"#utility.yul\":10219:10220   */\n      0x00\n        /* \"#utility.yul\":10208:10217   */\n      dup4\n        /* \"#utility.yul\":10204:10221   */\n      add\n        /* \"#utility.yul\":10197:10244   */\n      mstore\n        /* \"#utility.yul\":10261:10392   */\n      tag_235\n        /* \"#utility.yul\":10387:10391   */\n      dup2\n        /* \"#utility.yul\":10261:10392   */\n      tag_142\n      jump\t// in\n    tag_235:\n        /* \"#utility.yul\":10253:10392   */\n      swap1\n      pop\n        /* \"#utility.yul\":9980:10399   */\n      swap2\n      swap1\n      pop\n      jump\t// out\n        /* \"#utility.yul\":10405:10552   */\n    tag_143:\n        /* \"#utility.yul\":10506:10517   */\n      0x00\n        /* \"#utility.yul\":10543:10546   */\n      dup2\n        /* \"#utility.yul\":10528:10546   */\n      swap1\n      pop\n        /* \"#utility.yul\":10405:10552   */\n      swap3\n      swap2\n      pop\n      pop\n      jump\t// out\n        /* \"#utility.yul\":10558:10672   */\n    tag_144:\n      pop\n      jump\t// out\n        /* \"#utility.yul\":10678:11076   */\n    tag_145:\n        /* \"#utility.yul\":10837:10840   */\n      0x00\n        /* \"#utility.yul\":10858:10941   */\n      tag_239\n        /* \"#utility.yul\":10939:10940   */\n      0x00\n        /* \"#utility.yul\":10934:10937   */\n      dup4\n        /* \"#utility.yul\":10858:10941   */\n      tag_143\n      jump\t// in\n    tag_239:\n        /* \"#utility.yul\":10851:10941   */\n      swap2\n      pop\n        /* \"#utility.yul\":10950:11043   */\n      tag_240\n        /* \"#utility.yul\":11039:11042   */\n      dup3\n        /* \"#utility.yul\":10950:11043   */\n      tag_144\n      jump\t// in\n    tag_240:\n        /* \"#utility.yul\":11068:11069   */\n      0x00\n        /* \"#utility.yul\":11063:11066   */\n      dup3\n        /* \"#utility.yul\":11059:11070   */\n      add\n        /* \"#utility.yul\":11052:11070   */\n      swap1\n      pop\n        /* \"#utility.yul\":10678:11076   */\n      swap2\n      swap1\n      pop\n      jump\t// out\n        /* \"#utility.yul\":11082:11461   */\n    tag_101:\n        /* \"#utility.yul\":11266:11269   */\n      0x00\n        /* \"#utility.yul\":11288:11435   */\n      tag_242\n        /* \"#utility.yul\":11431:11434   */\n      dup3\n        /* \"#utility.yul\":11288:11435   */\n      tag_145\n      jump\t// in\n    tag_242:\n        /* \"#utility.yul\":11281:11435   */\n      swap2\n      pop\n        /* \"#utility.yul\":11452:11455   */\n      dup2\n        /* \"#utility.yul\":11445:11455   */\n      swap1\n      pop\n        /* \"#utility.yul\":11082:11461   */\n      swap2\n      swap1\n      pop\n      jump\t// out\n        /* \"#utility.yul\":11467:11632   */\n    tag_146:\n        /* \"#utility.yul\":11607:11624   */\n      0x5472616e73666572206661696c65640000000000000000000000000000000000\n        /* \"#utility.yul\":11603:11604   */\n      0x00\n        /* \"#utility.yul\":11595:11601   */\n      dup3\n        /* \"#utility.yul\":11591:11605   */\n      add\n        /* \"#utility.yul\":11584:11625   */\n      mstore\n        /* \"#utility.yul\":11467:11632   */\n      pop\n      jump\t// out\n        /* \"#utility.yul\":11638:12004   */\n    tag_147:\n        /* \"#utility.yul\":11780:11783   */\n      0x00\n        /* \"#utility.yul\":11801:11868   */\n      tag_245\n        /* \"#utility.yul\":11865:11867   */\n      0x0f\n        /* \"#utility.yul\":11860:11863   */\n      dup4\n        /* \"#utility.yul\":11801:11868   */\n      tag_129\n      jump\t// in\n    tag_245:\n        /* \"#utility.yul\":11794:11868   */\n      swap2\n      pop\n        /* \"#utility.yul\":11877:11970   */\n      tag_246\n        /* \"#utility.yul\":11966:11969   */\n      dup3\n        /* \"#utility.yul\":11877:11970   */\n      tag_146\n      jump\t// in\n    tag_246:\n        /* \"#utility.yul\":11995:11997   */\n      0x20\n        /* \"#utility.yul\":11990:11993   */\n      dup3\n        /* \"#utility.yul\":11986:11998   */\n      add\n        /* \"#utility.yul\":11979:11998   */\n      swap1\n      pop\n        /* \"#utility.yul\":11638:12004   */\n      swap2\n      swap1\n      pop\n      jump\t// out\n        /* \"#utility.yul\":12010:12429   */\n    tag_107:\n        /* \"#utility.yul\":12176:12180   */\n      0x00\n        /* \"#utility.yul\":12214:12216   */\n      0x20\n        /* \"#utility.yul\":12203:12212   */\n      dup3\n        /* \"#utility.yul\":12199:12217   */\n      add\n        /* \"#utility.yul\":12191:12217   */\n      swap1\n      pop\n        /* \"#utility.yul\":12263:12272   */\n      dup2\n        /* \"#utility.yul\":12257:12261   */\n      dup2\n        /* \"#utility.yul\":12253:12273   */\n      sub\n        /* \"#utility.yul\":12249:12250   */\n      0x00\n        /* \"#utility.yul\":12238:12247   */\n      dup4\n        /* \"#utility.yul\":12234:12251   */\n      add\n        /* \"#utility.yul\":12227:12274   */\n      mstore\n        /* \"#utility.yul\":12291:12422   */\n      tag_248\n        /* \"#utility.yul\":12417:12421   */\n      dup2\n        /* \"#utility.yul\":12291:12422   */\n      tag_147\n      jump\t// in\n    tag_248:\n        /* \"#utility.yul\":12283:12422   */\n      swap1\n      pop\n        /* \"#utility.yul\":12010:12429   */\n      swap2\n      swap1\n      pop\n      jump\t// out\n\n    auxdata: 0xa2646970667358221220d776dee91b49f25a11ba7453aa8d9c73872bedb257fc874ba9b23789aa98f6dd64736f6c63430008160033\n}\n",
				"bytecode": {
					"linkReferences": {},
					"object": "608060405234801562000010575f80fd5b50604051620013b3380380620013b383398181016040528101906200003691906200016b565b825f806101000a81548173ffffffffffffffffffffffffffffffffffffffff021916908373ffffffffffffffffffffffffffffffffffffffff1602179055508160015f6101000a81548173ffffffffffffffffffffffffffffffffffffffff021916908373ffffffffffffffffffffffffffffffffffffffff1602179055508060025f6101000a81548173ffffffffffffffffffffffffffffffffffffffff021916908373ffffffffffffffffffffffffffffffffffffffff1602179055506001600381905550505050620001c4565b5f80fd5b5f73ffffffffffffffffffffffffffffffffffffffff82169050919050565b5f62000135826200010a565b9050919050565b620001478162000129565b811462000152575f80fd5b50565b5f8151905062000165816200013c565b92915050565b5f805f6060848603121562000185576200018462000106565b5b5f620001948682870162000155565b9350506020620001a78682870162000155565b9250506040620001ba8682870162000155565b9150509250925092565b6111e180620001d25f395ff3fe608060405234801561000f575f80fd5b5060043610610086575f3560e01c8063736889141161005957806373688914146101005780639ace38c21461011e578063b6f36dcf14610152578063f19a66821461017057610086565b80630c5369331461008a57806312065fe0146100a8578063242232d1146100c657806352709725146100e2575b5f80fd5b61009261018c565b60405161009f9190610c17565b60405180910390f35b6100b0610192565b6040516100bd9190610c17565b60405180910390f35b6100e060048036038101906100db9190610c5e565b610199565b005b6100ea610544565b6040516100f79190610cc8565b60405180910390f35b610108610569565b6040516101159190610cc8565b60405180910390f35b61013860048036038101906101339190610c5e565b61058c565b604051610149959493929190610cfb565b60405180910390f35b61015a6105e9565b6040516101679190610cc8565b60405180910390f35b61018a60048036038101906101859190610d76565b61060e565b005b60035481565b5f47905090565b5f8054906101000a900473ffffffffffffffffffffffffffffffffffffffff1673ffffffffffffffffffffffffffffffffffffffff163373ffffffffffffffffffffffffffffffffffffffff16148061023e575060015f9054906101000a900473ffffffffffffffffffffffffffffffffffffffff1673ffffffffffffffffffffffffffffffffffffffff163373ffffffffffffffffffffffffffffffffffffffff16145b80610295575060025f9054906101000a900473ffffffffffffffffffffffffffffffffffffffff1673ffffffffffffffffffffffffffffffffffffffff163373ffffffffffffffffffffffffffffffffffffffff16145b6102d4576040517f08c379a00000000000000000000000000000000000000000000000000000000081526004016102cb90610e0e565b60405180910390fd5b8060035481111561031a576040517f08c379a000000000000000000000000000000000000000000000000000000000815260040161031190610e76565b60405180910390fd5b60045f8281526020019081526020015f206005015f9054906101000a900460ff161561037b576040517f08c379a000000000000000000000000000000000000000000000000000000000815260040161037290610ede565b60405180910390fd5b5f60045f8481526020019081526020015f2090505f805b8260040180549050811015610427573373ffffffffffffffffffffffffffffffffffffffff168360040182815481106103ce576103cd610efc565b5b905f5260205f20015f9054906101000a900473ffffffffffffffffffffffffffffffffffffffff1673ffffffffffffffffffffffffffffffffffffffff160361041a5760019150610427565b8080600101915050610392565b508015610469576040517f08c379a000000000000000000000000000000000000000000000000000000000815260040161046090610f73565b60405180910390fd5b8160040133908060018154018082558091505060019003905f5260205f20015f9091909190916101000a81548173ffffffffffffffffffffffffffffffffffffffff021916908373ffffffffffffffffffffffffffffffffffffffff160217905550816003015f8154809291906104df90610fbe565b91905055503373ffffffffffffffffffffffffffffffffffffffff16847f924813d717e221b5f46dcd8a56da1679e4612584ab3237d55e5faabf6f6a307960405160405180910390a3600282600301541061053e5761053d846108f5565b5b50505050565b60015f9054906101000a900473ffffffffffffffffffffffffffffffffffffffff1681565b5f8054906101000a900473ffffffffffffffffffffffffffffffffffffffff1681565b6004602052805f5260405f205f91509050805f015490806001015f9054906101000a900473ffffffffffffffffffffffffffffffffffffffff1690806002015490806003015490806005015f9054906101000a900460ff16905085565b60025f9054906101000a900473ffffffffffffffffffffffffffffffffffffffff1681565b5f8054906101000a900473ffffffffffffffffffffffffffffffffffffffff1673ffffffffffffffffffffffffffffffffffffffff163373ffffffffffffffffffffffffffffffffffffffff1614806106b3575060015f9054906101000a900473ffffffffffffffffffffffffffffffffffffffff1673ffffffffffffffffffffffffffffffffffffffff163373ffffffffffffffffffffffffffffffffffffffff16145b8061070a575060025f9054906101000a900473ffffffffffffffffffffffffffffffffffffffff1673ffffffffffffffffffffffffffffffffffffffff163373ffffffffffffffffffffffffffffffffffffffff16145b610749576040517f08c379a000000000000000000000000000000000000000000000000000000000815260040161074090610e0e565b60405180910390fd5b5f60035f81548092919061075c90610fbe565b9190505590506040518060c001604052808281526020018473ffffffffffffffffffffffffffffffffffffffff1681526020018381526020015f81526020015f67ffffffffffffffff8111156107b5576107b4611005565b5b6040519080825280602002602001820160405280156107e35781602001602082028036833780820191505090505b5081526020015f151581525060045f8381526020019081526020015f205f820151815f01556020820151816001015f6101000a81548173ffffffffffffffffffffffffffffffffffffffff021916908373ffffffffffffffffffffffffffffffffffffffff1602179055506040820151816002015560608201518160030155608082015181600401908051906020019061087e929190610b5d565b5060a0820151816005015f6101000a81548160ff0219169083151502179055509050508273ffffffffffffffffffffffffffffffffffffffff16817f34c1492f2b30aac2446b0b2de2e32501ff4742f7196db5ed9e0ddd6b7d7b25cf846040516108e89190610c17565b60405180910390a3505050565b8060035481111561093b576040517f08c379a000000000000000000000000000000000000000000000000000000000815260040161093290610e76565b60405180910390fd5b60045f8281526020019081526020015f206005015f9054906101000a900460ff161561099c576040517f08c379a000000000000000000000000000000000000000000000000000000000815260040161099390610ede565b60405180910390fd5b5f60045f8481526020019081526020015f2090506002816003015410156109f8576040517f08c379a00000000000000000000000000000000000000000000000000000000081526004016109ef9061107c565b60405180910390fd5b8060020154471015610a3f576040517f08c379a0000000000000000000000000000000000000000000000000000000008152600401610a36906110e4565b60405180910390fd5b5f816001015f9054906101000a900473ffffffffffffffffffffffffffffffffffffffff1673ffffffffffffffffffffffffffffffffffffffff168260020154604051610a8b9061112f565b5f6040518083038185875af1925050503d805f8114610ac5576040519150601f19603f3d011682016040523d82523d5f602084013e610aca565b606091505b5050905080610b0e576040517f08c379a0000000000000000000000000000000000000000000000000000000008152600401610b059061118d565b60405180910390fd5b6001826005015f6101000a81548160ff021916908315150217905550837f15ed165a284872ea7017f03df402a0cadfbfab588320ffaf83f160c2f82781c760405160405180910390a250505050565b828054828255905f5260205f20908101928215610bd3579160200282015b82811115610bd2578251825f6101000a81548173ffffffffffffffffffffffffffffffffffffffff021916908373ffffffffffffffffffffffffffffffffffffffff16021790555091602001919060010190610b7b565b5b509050610be09190610be4565b5090565b5b80821115610bfb575f815f905550600101610be5565b5090565b5f819050919050565b610c1181610bff565b82525050565b5f602082019050610c2a5f830184610c08565b92915050565b5f80fd5b610c3d81610bff565b8114610c47575f80fd5b50565b5f81359050610c5881610c34565b92915050565b5f60208284031215610c7357610c72610c30565b5b5f610c8084828501610c4a565b91505092915050565b5f73ffffffffffffffffffffffffffffffffffffffff82169050919050565b5f610cb282610c89565b9050919050565b610cc281610ca8565b82525050565b5f602082019050610cdb5f830184610cb9565b92915050565b5f8115159050919050565b610cf581610ce1565b82525050565b5f60a082019050610d0e5f830188610c08565b610d1b6020830187610cb9565b610d286040830186610c08565b610d356060830185610c08565b610d426080830184610cec565b9695505050505050565b610d5581610ca8565b8114610d5f575f80fd5b50565b5f81359050610d7081610d4c565b92915050565b5f8060408385031215610d8c57610d8b610c30565b5b5f610d9985828601610d62565b9250506020610daa85828601610c4a565b9150509250929050565b5f82825260208201905092915050565b7f4e6f7420616e206f776e657200000000000000000000000000000000000000005f82015250565b5f610df8600c83610db4565b9150610e0382610dc4565b602082019050919050565b5f6020820190508181035f830152610e2581610dec565b9050919050565b7f496e76616c6964207472616e73616374696f6e204944000000000000000000005f82015250565b5f610e60601683610db4565b9150610e6b82610e2c565b602082019050919050565b5f6020820190508181035f830152610e8d81610e54565b9050919050565b7f5472616e73616374696f6e20616c7265616479206578656375746564000000005f82015250565b5f610ec8601c83610db4565b9150610ed382610e94565b602082019050919050565b5f6020820190508181035f830152610ef581610ebc565b9050919050565b7f4e487b71000000000000000000000000000000000000000000000000000000005f52603260045260245ffd5b7f416c726561647920617070726f766564000000000000000000000000000000005f82015250565b5f610f5d601083610db4565b9150610f6882610f29565b602082019050919050565b5f6020820190508181035f830152610f8a81610f51565b9050919050565b7f4e487b71000000000000000000000000000000000000000000000000000000005f52601160045260245ffd5b5f610fc882610bff565b91507fffffffffffffffffffffffffffffffffffffffffffffffffffffffffffffffff8203610ffa57610ff9610f91565b5b600182019050919050565b7f4e487b71000000000000000000000000000000000000000000000000000000005f52604160045260245ffd5b7f4e6f7420656e6f75676820617070726f76616c730000000000000000000000005f82015250565b5f611066601483610db4565b915061107182611032565b602082019050919050565b5f6020820190508181035f8301526110938161105a565b9050919050565b7f496e73756666696369656e742066756e647320696e207468652077616c6c65745f82015250565b5f6110ce602083610db4565b91506110d98261109a565b602082019050919050565b5f6020820190508181035f8301526110fb816110c2565b9050919050565b5f81905092915050565b50565b5f61111a5f83611102565b91506111258261110c565b5f82019050919050565b5f6111398261110f565b9150819050919050565b7f5472616e73666572206661696c656400000000000000000000000000000000005f82015250565b5f611177600f83610db4565b915061118282611143565b602082019050919050565b5f6020820190508181035f8301526111a48161116b565b905091905056fea2646970667358221220d776dee91b49f25a11ba7453aa8d9c73872bedb257fc874ba9b23789aa98f6dd64736f6c63430008160033",
					"opcodes": "PUSH1 0x80 PUSH1 0x40 MSTORE CALLVALUE DUP1 ISZERO PUSH3 0x10 JUMPI PUSH0 DUP1 REVERT JUMPDEST POP PUSH1 0x40 MLOAD PUSH3 0x13B3 CODESIZE SUB DUP1 PUSH3 0x13B3 DUP4 CODECOPY DUP2 DUP2 ADD PUSH1 0x40 MSTORE DUP2 ADD SWAP1 PUSH3 0x36 SWAP2 SWAP1 PUSH3 0x16B JUMP JUMPDEST DUP3 PUSH0 DUP1 PUSH2 0x100 EXP DUP2 SLOAD DUP2 PUSH20 0xFFFFFFFFFFFFFFFFFFFFFFFFFFFFFFFFFFFFFFFF MUL NOT AND SWAP1 DUP4 PUSH20 0xFFFFFFFFFFFFFFFFFFFFFFFFFFFFFFFFFFFFFFFF AND MUL OR SWAP1 SSTORE POP DUP2 PUSH1 0x1 PUSH0 PUSH2 0x100 EXP DUP2 SLOAD DUP2 PUSH20 0xFFFFFFFFFFFFFFFFFFFFFFFFFFFFFFFFFFFFFFFF MUL NOT AND SWAP1 DUP4 PUSH20 0xFFFFFFFFFFFFFFFFFFFFFFFFFFFFFFFFFFFFFFFF AND MUL OR SWAP1 SSTORE POP DUP1 PUSH1 0x2 PUSH0 PUSH2 0x100 EXP DUP2 SLOAD DUP2 PUSH20 0xFFFFFFFFFFFFFFFFFFFFFFFFFFFFFFFFFFFFFFFF MUL NOT AND SWAP1 DUP4 PUSH20 0xFFFFFFFFFFFFFFFFFFFFFFFFFFFFFFFFFFFFFFFF AND MUL OR SWAP1 SSTORE POP PUSH1 0x1 PUSH1 0x3 DUP2 SWAP1 SSTORE POP POP POP POP PUSH3 0x1C4 JUMP JUMPDEST PUSH0 DUP1 REVERT JUMPDEST PUSH0 PUSH20 0xFFFFFFFFFFFFFFFFFFFFFFFFFFFFFFFFFFFFFFFF DUP3 AND SWAP1 POP SWAP2 SWAP1 POP JUMP JUMPDEST PUSH0 PUSH3 0x135 DUP3 PUSH3 0x10A JUMP JUMPDEST SWAP1 POP SWAP2 SWAP1 POP JUMP JUMPDEST PUSH3 0x147 DUP2 PUSH3 0x129 JUMP JUMPDEST DUP2 EQ PUSH3 0x152 JUMPI PUSH0 DUP1 REVERT JUMPDEST POP JUMP JUMPDEST PUSH0 DUP2 MLOAD SWAP1 POP PUSH3 0x165 DUP2 PUSH3 0x13C JUMP JUMPDEST SWAP3 SWAP2 POP POP JUMP JUMPDEST PUSH0 DUP1 PUSH0 PUSH1 0x60 DUP5 DUP7 SUB SLT ISZERO PUSH3 0x185 JUMPI PUSH3 0x184 PUSH3 0x106 JUMP JUMPDEST JUMPDEST PUSH0 PUSH3 0x194 DUP7 DUP3 DUP8 ADD PUSH3 0x155 JUMP JUMPDEST SWAP4 POP POP PUSH1 0x20 PUSH3 0x1A7 DUP7 DUP3 DUP8 ADD PUSH3 0x155 JUMP JUMPDEST SWAP3 POP POP PUSH1 0x40 PUSH3 0x1BA DUP7 DUP3 DUP8 ADD PUSH3 0x155 JUMP JUMPDEST SWAP2 POP POP SWAP3 POP SWAP3 POP SWAP3 JUMP JUMPDEST PUSH2 0x11E1 DUP1 PUSH3 0x1D2 PUSH0 CODECOPY PUSH0 RETURN INVALID PUSH1 0x80 PUSH1 0x40 MSTORE CALLVALUE DUP1 ISZERO PUSH2 0xF JUMPI PUSH0 DUP1 REVERT JUMPDEST POP PUSH1 0x4 CALLDATASIZE LT PUSH2 0x86 JUMPI PUSH0 CALLDATALOAD PUSH1 0xE0 SHR DUP1 PUSH4 0x73688914 GT PUSH2 0x59 JUMPI DUP1 PUSH4 0x73688914 EQ PUSH2 0x100 JUMPI DUP1 PUSH4 0x9ACE38C2 EQ PUSH2 0x11E JUMPI DUP1 PUSH4 0xB6F36DCF EQ PUSH2 0x152 JUMPI DUP1 PUSH4 0xF19A6682 EQ PUSH2 0x170 JUMPI PUSH2 0x86 JUMP JUMPDEST DUP1 PUSH4 0xC536933 EQ PUSH2 0x8A JUMPI DUP1 PUSH4 0x12065FE0 EQ PUSH2 0xA8 JUMPI DUP1 PUSH4 0x242232D1 EQ PUSH2 0xC6 JUMPI DUP1 PUSH4 0x52709725 EQ PUSH2 0xE2 JUMPI JUMPDEST PUSH0 DUP1 REVERT JUMPDEST PUSH2 0x92 PUSH2 0x18C JUMP JUMPDEST PUSH1 0x40 MLOAD PUSH2 0x9F SWAP2 SWAP1 PUSH2 0xC17 JUMP JUMPDEST PUSH1 0x40 MLOAD DUP1 SWAP2 SUB SWAP1 RETURN JUMPDEST PUSH2 0xB0 PUSH2 0x192 JUMP JUMPDEST PUSH1 0x40 MLOAD PUSH2 0xBD SWAP2 SWAP1 PUSH2 0xC17 JUMP JUMPDEST PUSH1 0x40 MLOAD DUP1 SWAP2 SUB SWAP1 RETURN JUMPDEST PUSH2 0xE0 PUSH1 0x4 DUP1 CALLDATASIZE SUB DUP2 ADD SWAP1 PUSH2 0xDB SWAP2 SWAP1 PUSH2 0xC5E JUMP JUMPDEST PUSH2 0x199 JUMP JUMPDEST STOP JUMPDEST PUSH2 0xEA PUSH2 0x544 JUMP JUMPDEST PUSH1 0x40 MLOAD PUSH2 0xF7 SWAP2 SWAP1 PUSH2 0xCC8 JUMP JUMPDEST PUSH1 0x40 MLOAD DUP1 SWAP2 SUB SWAP1 RETURN JUMPDEST PUSH2 0x108 PUSH2 0x569 JUMP JUMPDEST PUSH1 0x40 MLOAD PUSH2 0x115 SWAP2 SWAP1 PUSH2 0xCC8 JUMP JUMPDEST PUSH1 0x40 MLOAD DUP1 SWAP2 SUB SWAP1 RETURN JUMPDEST PUSH2 0x138 PUSH1 0x4 DUP1 CALLDATASIZE SUB DUP2 ADD SWAP1 PUSH2 0x133 SWAP2 SWAP1 PUSH2 0xC5E JUMP JUMPDEST PUSH2 0x58C JUMP JUMPDEST PUSH1 0x40 MLOAD PUSH2 0x149 SWAP6 SWAP5 SWAP4 SWAP3 SWAP2 SWAP1 PUSH2 0xCFB JUMP JUMPDEST PUSH1 0x40 MLOAD DUP1 SWAP2 SUB SWAP1 RETURN JUMPDEST PUSH2 0x15A PUSH2 0x5E9 JUMP JUMPDEST PUSH1 0x40 MLOAD PUSH2 0x167 SWAP2 SWAP1 PUSH2 0xCC8 JUMP JUMPDEST PUSH1 0x40 MLOAD DUP1 SWAP2 SUB SWAP1 RETURN JUMPDEST PUSH2 0x18A PUSH1 0x4 DUP1 CALLDATASIZE SUB DUP2 ADD SWAP1 PUSH2 0x185 SWAP2 SWAP1 PUSH2 0xD76 JUMP JUMPDEST PUSH2 0x60E JUMP JUMPDEST STOP JUMPDEST PUSH1 0x3 SLOAD DUP2 JUMP JUMPDEST PUSH0 SELFBALANCE SWAP1 POP SWAP1 JUMP JUMPDEST PUSH0 DUP1 SLOAD SWAP1 PUSH2 0x100 EXP SWAP1 DIV PUSH20 0xFFFFFFFFFFFFFFFFFFFFFFFFFFFFFFFFFFFFFFFF AND PUSH20 0xFFFFFFFFFFFFFFFFFFFFFFFFFFFFFFFFFFFFFFFF AND CALLER PUSH20 0xFFFFFFFFFFFFFFFFFFFFFFFFFFFFFFFFFFFFFFFF AND EQ DUP1 PUSH2 0x23E JUMPI POP PUSH1 0x1 PUSH0 SWAP1 SLOAD SWAP1 PUSH2 0x100 EXP SWAP1 DIV PUSH20 0xFFFFFFFFFFFFFFFFFFFFFFFFFFFFFFFFFFFFFFFF AND PUSH20 0xFFFFFFFFFFFFFFFFFFFFFFFFFFFFFFFFFFFFFFFF AND CALLER PUSH20 0xFFFFFFFFFFFFFFFFFFFFFFFFFFFFFFFFFFFFFFFF AND EQ JUMPDEST DUP1 PUSH2 0x295 JUMPI POP PUSH1 0x2 PUSH0 SWAP1 SLOAD SWAP1 PUSH2 0x100 EXP SWAP1 DIV PUSH20 0xFFFFFFFFFFFFFFFFFFFFFFFFFFFFFFFFFFFFFFFF AND PUSH20 0xFFFFFFFFFFFFFFFFFFFFFFFFFFFFFFFFFFFFFFFF AND CALLER PUSH20 0xFFFFFFFFFFFFFFFFFFFFFFFFFFFFFFFFFFFFFFFF AND EQ JUMPDEST PUSH2 0x2D4 JUMPI PUSH1 0x40 MLOAD PUSH32 0x8C379A000000000000000000000000000000000000000000000000000000000 DUP2 MSTORE PUSH1 0x4 ADD PUSH2 0x2CB SWAP1 PUSH2 0xE0E JUMP JUMPDEST PUSH1 0x40 MLOAD DUP1 SWAP2 SUB SWAP1 REVERT JUMPDEST DUP1 PUSH1 0x3 SLOAD DUP2 GT ISZERO PUSH2 0x31A JUMPI PUSH1 0x40 MLOAD PUSH32 0x8C379A000000000000000000000000000000000000000000000000000000000 DUP2 MSTORE PUSH1 0x4 ADD PUSH2 0x311 SWAP1 PUSH2 0xE76 JUMP JUMPDEST PUSH1 0x40 MLOAD DUP1 SWAP2 SUB SWAP1 REVERT JUMPDEST PUSH1 0x4 PUSH0 DUP3 DUP2 MSTORE PUSH1 0x20 ADD SWAP1 DUP2 MSTORE PUSH1 0x20 ADD PUSH0 KECCAK256 PUSH1 0x5 ADD PUSH0 SWAP1 SLOAD SWAP1 PUSH2 0x100 EXP SWAP1 DIV PUSH1 0xFF AND ISZERO PUSH2 0x37B JUMPI PUSH1 0x40 MLOAD PUSH32 0x8C379A000000000000000000000000000000000000000000000000000000000 DUP2 MSTORE PUSH1 0x4 ADD PUSH2 0x372 SWAP1 PUSH2 0xEDE JUMP JUMPDEST PUSH1 0x40 MLOAD DUP1 SWAP2 SUB SWAP1 REVERT JUMPDEST PUSH0 PUSH1 0x4 PUSH0 DUP5 DUP2 MSTORE PUSH1 0x20 ADD SWAP1 DUP2 MSTORE PUSH1 0x20 ADD PUSH0 KECCAK256 SWAP1 POP PUSH0 DUP1 JUMPDEST DUP3 PUSH1 0x4 ADD DUP1 SLOAD SWAP1 POP DUP2 LT ISZERO PUSH2 0x427 JUMPI CALLER PUSH20 0xFFFFFFFFFFFFFFFFFFFFFFFFFFFFFFFFFFFFFFFF AND DUP4 PUSH1 0x4 ADD DUP3 DUP2 SLOAD DUP2 LT PUSH2 0x3CE JUMPI PUSH2 0x3CD PUSH2 0xEFC JUMP JUMPDEST JUMPDEST SWAP1 PUSH0 MSTORE PUSH1 0x20 PUSH0 KECCAK256 ADD PUSH0 SWAP1 SLOAD SWAP1 PUSH2 0x100 EXP SWAP1 DIV PUSH20 0xFFFFFFFFFFFFFFFFFFFFFFFFFFFFFFFFFFFFFFFF AND PUSH20 0xFFFFFFFFFFFFFFFFFFFFFFFFFFFFFFFFFFFFFFFF AND SUB PUSH2 0x41A JUMPI PUSH1 0x1 SWAP2 POP PUSH2 0x427 JUMP JUMPDEST DUP1 DUP1 PUSH1 0x1 ADD SWAP2 POP POP PUSH2 0x392 JUMP JUMPDEST POP DUP1 ISZERO PUSH2 0x469 JUMPI PUSH1 0x40 MLOAD PUSH32 0x8C379A000000000000000000000000000000000000000000000000000000000 DUP2 MSTORE PUSH1 0x4 ADD PUSH2 0x460 SWAP1 PUSH2 0xF73 JUMP JUMPDEST PUSH1 0x40 MLOAD DUP1 SWAP2 SUB SWAP1 REVERT JUMPDEST DUP2 PUSH1 0x4 ADD CALLER SWAP1 DUP1 PUSH1 0x1 DUP2 SLOAD ADD DUP1 DUP3 SSTORE DUP1 SWAP2 POP POP PUSH1 0x1 SWAP1 SUB SWAP1 PUSH0 MSTORE PUSH1 0x20 PUSH0 KECCAK256 ADD PUSH0 SWAP1 SWAP2 SWAP1 SWAP2 SWAP1 SWAP2 PUSH2 0x100 EXP DUP2 SLOAD DUP2 PUSH20 0xFFFFFFFFFFFFFFFFFFFFFFFFFFFFFFFFFFFFFFFF MUL NOT AND SWAP1 DUP4 PUSH20 0xFFFFFFFFFFFFFFFFFFFFFFFFFFFFFFFFFFFFFFFF AND MUL OR SWAP1 SSTORE POP DUP2 PUSH1 0x3 ADD PUSH0 DUP2 SLOAD DUP1 SWAP3 SWAP2 SWAP1 PUSH2 0x4DF SWAP1 PUSH2 0xFBE JUMP JUMPDEST SWAP2 SWAP1 POP SSTORE POP CALLER PUSH20 0xFFFFFFFFFFFFFFFFFFFFFFFFFFFFFFFFFFFFFFFF AND DUP5 PUSH32 0x924813D717E221B5F46DCD8A56DA1679E4612584AB3237D55E5FAABF6F6A3079 PUSH1 0x40 MLOAD PUSH1 0x40 MLOAD DUP1 SWAP2 SUB SWAP1 LOG3 PUSH1 0x2 DUP3 PUSH1 0x3 ADD SLOAD LT PUSH2 0x53E JUMPI PUSH2 0x53D DUP5 PUSH2 0x8F5 JUMP JUMPDEST JUMPDEST POP POP POP POP JUMP JUMPDEST PUSH1 0x1 PUSH0 SWAP1 SLOAD SWAP1 PUSH2 0x100 EXP SWAP1 DIV PUSH20 0xFFFFFFFFFFFFFFFFFFFFFFFFFFFFFFFFFFFFFFFF AND DUP2 JUMP JUMPDEST PUSH0 DUP1 SLOAD SWAP1 PUSH2 0x100 EXP SWAP1 DIV PUSH20 0xFFFFFFFFFFFFFFFFFFFFFFFFFFFFFFFFFFFFFFFF AND DUP2 JUMP JUMPDEST PUSH1 0x4 PUSH1 0x20 MSTORE DUP1 PUSH0 MSTORE PUSH1 0x40 PUSH0 KECCAK256 PUSH0 SWAP2 POP SWAP1 POP DUP1 PUSH0 ADD SLOAD SWAP1 DUP1 PUSH1 0x1 ADD PUSH0 SWAP1 SLOAD SWAP1 PUSH2 0x100 EXP SWAP1 DIV PUSH20 0xFFFFFFFFFFFFFFFFFFFFFFFFFFFFFFFFFFFFFFFF AND SWAP1 DUP1 PUSH1 0x2 ADD SLOAD SWAP1 DUP1 PUSH1 0x3 ADD SLOAD SWAP1 DUP1 PUSH1 0x5 ADD PUSH0 SWAP1 SLOAD SWAP1 PUSH2 0x100 EXP SWAP1 DIV PUSH1 0xFF AND SWAP1 POP DUP6 JUMP JUMPDEST PUSH1 0x2 PUSH0 SWAP1 SLOAD SWAP1 PUSH2 0x100 EXP SWAP1 DIV PUSH20 0xFFFFFFFFFFFFFFFFFFFFFFFFFFFFFFFFFFFFFFFF AND DUP2 JUMP JUMPDEST PUSH0 DUP1 SLOAD SWAP1 PUSH2 0x100 EXP SWAP1 DIV PUSH20 0xFFFFFFFFFFFFFFFFFFFFFFFFFFFFFFFFFFFFFFFF AND PUSH20 0xFFFFFFFFFFFFFFFFFFFFFFFFFFFFFFFFFFFFFFFF AND CALLER PUSH20 0xFFFFFFFFFFFFFFFFFFFFFFFFFFFFFFFFFFFFFFFF AND EQ DUP1 PUSH2 0x6B3 JUMPI POP PUSH1 0x1 PUSH0 SWAP1 SLOAD SWAP1 PUSH2 0x100 EXP SWAP1 DIV PUSH20 0xFFFFFFFFFFFFFFFFFFFFFFFFFFFFFFFFFFFFFFFF AND PUSH20 0xFFFFFFFFFFFFFFFFFFFFFFFFFFFFFFFFFFFFFFFF AND CALLER PUSH20 0xFFFFFFFFFFFFFFFFFFFFFFFFFFFFFFFFFFFFFFFF AND EQ JUMPDEST DUP1 PUSH2 0x70A JUMPI POP PUSH1 0x2 PUSH0 SWAP1 SLOAD SWAP1 PUSH2 0x100 EXP SWAP1 DIV PUSH20 0xFFFFFFFFFFFFFFFFFFFFFFFFFFFFFFFFFFFFFFFF AND PUSH20 0xFFFFFFFFFFFFFFFFFFFFFFFFFFFFFFFFFFFFFFFF AND CALLER PUSH20 0xFFFFFFFFFFFFFFFFFFFFFFFFFFFFFFFFFFFFFFFF AND EQ JUMPDEST PUSH2 0x749 JUMPI PUSH1 0x40 MLOAD PUSH32 0x8C379A000000000000000000000000000000000000000000000000000000000 DUP2 MSTORE PUSH1 0x4 ADD PUSH2 0x740 SWAP1 PUSH2 0xE0E JUMP JUMPDEST PUSH1 0x40 MLOAD DUP1 SWAP2 SUB SWAP1 REVERT JUMPDEST PUSH0 PUSH1 0x3 PUSH0 DUP2 SLOAD DUP1 SWAP3 SWAP2 SWAP1 PUSH2 0x75C SWAP1 PUSH2 0xFBE JUMP JUMPDEST SWAP2 SWAP1 POP SSTORE SWAP1 POP PUSH1 0x40 MLOAD DUP1 PUSH1 0xC0 ADD PUSH1 0x40 MSTORE DUP1 DUP3 DUP2 MSTORE PUSH1 0x20 ADD DUP5 PUSH20 0xFFFFFFFFFFFFFFFFFFFFFFFFFFFFFFFFFFFFFFFF AND DUP2 MSTORE PUSH1 0x20 ADD DUP4 DUP2 MSTORE PUSH1 0x20 ADD PUSH0 DUP2 MSTORE PUSH1 0x20 ADD PUSH0 PUSH8 0xFFFFFFFFFFFFFFFF DUP2 GT ISZERO PUSH2 0x7B5 JUMPI PUSH2 0x7B4 PUSH2 0x1005 JUMP JUMPDEST JUMPDEST PUSH1 0x40 MLOAD SWAP1 DUP1 DUP3 MSTORE DUP1 PUSH1 0x20 MUL PUSH1 0x20 ADD DUP3 ADD PUSH1 0x40 MSTORE DUP1 ISZERO PUSH2 0x7E3 JUMPI DUP2 PUSH1 0x20 ADD PUSH1 0x20 DUP3 MUL DUP1 CALLDATASIZE DUP4 CALLDATACOPY DUP1 DUP3 ADD SWAP2 POP POP SWAP1 POP JUMPDEST POP DUP2 MSTORE PUSH1 0x20 ADD PUSH0 ISZERO ISZERO DUP2 MSTORE POP PUSH1 0x4 PUSH0 DUP4 DUP2 MSTORE PUSH1 0x20 ADD SWAP1 DUP2 MSTORE PUSH1 0x20 ADD PUSH0 KECCAK256 PUSH0 DUP3 ADD MLOAD DUP2 PUSH0 ADD SSTORE PUSH1 0x20 DUP3 ADD MLOAD DUP2 PUSH1 0x1 ADD PUSH0 PUSH2 0x100 EXP DUP2 SLOAD DUP2 PUSH20 0xFFFFFFFFFFFFFFFFFFFFFFFFFFFFFFFFFFFFFFFF MUL NOT AND SWAP1 DUP4 PUSH20 0xFFFFFFFFFFFFFFFFFFFFFFFFFFFFFFFFFFFFFFFF AND MUL OR SWAP1 SSTORE POP PUSH1 0x40 DUP3 ADD MLOAD DUP2 PUSH1 0x2 ADD SSTORE PUSH1 0x60 DUP3 ADD MLOAD DUP2 PUSH1 0x3 ADD SSTORE PUSH1 0x80 DUP3 ADD MLOAD DUP2 PUSH1 0x4 ADD SWAP1 DUP1 MLOAD SWAP1 PUSH1 0x20 ADD SWAP1 PUSH2 0x87E SWAP3 SWAP2 SWAP1 PUSH2 0xB5D JUMP JUMPDEST POP PUSH1 0xA0 DUP3 ADD MLOAD DUP2 PUSH1 0x5 ADD PUSH0 PUSH2 0x100 EXP DUP2 SLOAD DUP2 PUSH1 0xFF MUL NOT AND SWAP1 DUP4 ISZERO ISZERO MUL OR SWAP1 SSTORE POP SWAP1 POP POP DUP3 PUSH20 0xFFFFFFFFFFFFFFFFFFFFFFFFFFFFFFFFFFFFFFFF AND DUP2 PUSH32 0x34C1492F2B30AAC2446B0B2DE2E32501FF4742F7196DB5ED9E0DDD6B7D7B25CF DUP5 PUSH1 0x40 MLOAD PUSH2 0x8E8 SWAP2 SWAP1 PUSH2 0xC17 JUMP JUMPDEST PUSH1 0x40 MLOAD DUP1 SWAP2 SUB SWAP1 LOG3 POP POP POP JUMP JUMPDEST DUP1 PUSH1 0x3 SLOAD DUP2 GT ISZERO PUSH2 0x93B JUMPI PUSH1 0x40 MLOAD PUSH32 0x8C379A000000000000000000000000000000000000000000000000000000000 DUP2 MSTORE PUSH1 0x4 ADD PUSH2 0x932 SWAP1 PUSH2 0xE76 JUMP JUMPDEST PUSH1 0x40 MLOAD DUP1 SWAP2 SUB SWAP1 REVERT JUMPDEST PUSH1 0x4 PUSH0 DUP3 DUP2 MSTORE PUSH1 0x20 ADD SWAP1 DUP2 MSTORE PUSH1 0x20 ADD PUSH0 KECCAK256 PUSH1 0x5 ADD PUSH0 SWAP1 SLOAD SWAP1 PUSH2 0x100 EXP SWAP1 DIV PUSH1 0xFF AND ISZERO PUSH2 0x99C JUMPI PUSH1 0x40 MLOAD PUSH32 0x8C379A000000000000000000000000000000000000000000000000000000000 DUP2 MSTORE PUSH1 0x4 ADD PUSH2 0x993 SWAP1 PUSH2 0xEDE JUMP JUMPDEST PUSH1 0x40 MLOAD DUP1 SWAP2 SUB SWAP1 REVERT JUMPDEST PUSH0 PUSH1 0x4 PUSH0 DUP5 DUP2 MSTORE PUSH1 0x20 ADD SWAP1 DUP2 MSTORE PUSH1 0x20 ADD PUSH0 KECCAK256 SWAP1 POP PUSH1 0x2 DUP2 PUSH1 0x3 ADD SLOAD LT ISZERO PUSH2 0x9F8 JUMPI PUSH1 0x40 MLOAD PUSH32 0x8C379A000000000000000000000000000000000000000000000000000000000 DUP2 MSTORE PUSH1 0x4 ADD PUSH2 0x9EF SWAP1 PUSH2 0x107C JUMP JUMPDEST PUSH1 0x40 MLOAD DUP1 SWAP2 SUB SWAP1 REVERT JUMPDEST DUP1 PUSH1 0x2 ADD SLOAD SELFBALANCE LT ISZERO PUSH2 0xA3F JUMPI PUSH1 0x40 MLOAD PUSH32 0x8C379A000000000000000000000000000000000000000000000000000000000 DUP2 MSTORE PUSH1 0x4 ADD PUSH2 0xA36 SWAP1 PUSH2 0x10E4 JUMP JUMPDEST PUSH1 0x40 MLOAD DUP1 SWAP2 SUB SWAP1 REVERT JUMPDEST PUSH0 DUP2 PUSH1 0x1 ADD PUSH0 SWAP1 SLOAD SWAP1 PUSH2 0x100 EXP SWAP1 DIV PUSH20 0xFFFFFFFFFFFFFFFFFFFFFFFFFFFFFFFFFFFFFFFF AND PUSH20 0xFFFFFFFFFFFFFFFFFFFFFFFFFFFFFFFFFFFFFFFF AND DUP3 PUSH1 0x2 ADD SLOAD PUSH1 0x40 MLOAD PUSH2 0xA8B SWAP1 PUSH2 0x112F JUMP JUMPDEST PUSH0 PUSH1 0x40 MLOAD DUP1 DUP4 SUB DUP2 DUP6 DUP8 GAS CALL SWAP3 POP POP POP RETURNDATASIZE DUP1 PUSH0 DUP2 EQ PUSH2 0xAC5 JUMPI PUSH1 0x40 MLOAD SWAP2 POP PUSH1 0x1F NOT PUSH1 0x3F RETURNDATASIZE ADD AND DUP3 ADD PUSH1 0x40 MSTORE RETURNDATASIZE DUP3 MSTORE RETURNDATASIZE PUSH0 PUSH1 0x20 DUP5 ADD RETURNDATACOPY PUSH2 0xACA JUMP JUMPDEST PUSH1 0x60 SWAP2 POP JUMPDEST POP POP SWAP1 POP DUP1 PUSH2 0xB0E JUMPI PUSH1 0x40 MLOAD PUSH32 0x8C379A000000000000000000000000000000000000000000000000000000000 DUP2 MSTORE PUSH1 0x4 ADD PUSH2 0xB05 SWAP1 PUSH2 0x118D JUMP JUMPDEST PUSH1 0x40 MLOAD DUP1 SWAP2 SUB SWAP1 REVERT JUMPDEST PUSH1 0x1 DUP3 PUSH1 0x5 ADD PUSH0 PUSH2 0x100 EXP DUP2 SLOAD DUP2 PUSH1 0xFF MUL NOT AND SWAP1 DUP4 ISZERO ISZERO MUL OR SWAP1 SSTORE POP DUP4 PUSH32 0x15ED165A284872EA7017F03DF402A0CADFBFAB588320FFAF83F160C2F82781C7 PUSH1 0x40 MLOAD PUSH1 0x40 MLOAD DUP1 SWAP2 SUB SWAP1 LOG2 POP POP POP POP JUMP JUMPDEST DUP3 DUP1 SLOAD DUP3 DUP3 SSTORE SWAP1 PUSH0 MSTORE PUSH1 0x20 PUSH0 KECCAK256 SWAP1 DUP2 ADD SWAP3 DUP3 ISZERO PUSH2 0xBD3 JUMPI SWAP2 PUSH1 0x20 MUL DUP3 ADD JUMPDEST DUP3 DUP2 GT ISZERO PUSH2 0xBD2 JUMPI DUP3 MLOAD DUP3 PUSH0 PUSH2 0x100 EXP DUP2 SLOAD DUP2 PUSH20 0xFFFFFFFFFFFFFFFFFFFFFFFFFFFFFFFFFFFFFFFF MUL NOT AND SWAP1 DUP4 PUSH20 0xFFFFFFFFFFFFFFFFFFFFFFFFFFFFFFFFFFFFFFFF AND MUL OR SWAP1 SSTORE POP SWAP2 PUSH1 0x20 ADD SWAP2 SWAP1 PUSH1 0x1 ADD SWAP1 PUSH2 0xB7B JUMP JUMPDEST JUMPDEST POP SWAP1 POP PUSH2 0xBE0 SWAP2 SWAP1 PUSH2 0xBE4 JUMP JUMPDEST POP SWAP1 JUMP JUMPDEST JUMPDEST DUP1 DUP3 GT ISZERO PUSH2 0xBFB JUMPI PUSH0 DUP2 PUSH0 SWAP1 SSTORE POP PUSH1 0x1 ADD PUSH2 0xBE5 JUMP JUMPDEST POP SWAP1 JUMP JUMPDEST PUSH0 DUP2 SWAP1 POP SWAP2 SWAP1 POP JUMP JUMPDEST PUSH2 0xC11 DUP2 PUSH2 0xBFF JUMP JUMPDEST DUP3 MSTORE POP POP JUMP JUMPDEST PUSH0 PUSH1 0x20 DUP3 ADD SWAP1 POP PUSH2 0xC2A PUSH0 DUP4 ADD DUP5 PUSH2 0xC08 JUMP JUMPDEST SWAP3 SWAP2 POP POP JUMP JUMPDEST PUSH0 DUP1 REVERT JUMPDEST PUSH2 0xC3D DUP2 PUSH2 0xBFF JUMP JUMPDEST DUP2 EQ PUSH2 0xC47 JUMPI PUSH0 DUP1 REVERT JUMPDEST POP JUMP JUMPDEST PUSH0 DUP2 CALLDATALOAD SWAP1 POP PUSH2 0xC58 DUP2 PUSH2 0xC34 JUMP JUMPDEST SWAP3 SWAP2 POP POP JUMP JUMPDEST PUSH0 PUSH1 0x20 DUP3 DUP5 SUB SLT ISZERO PUSH2 0xC73 JUMPI PUSH2 0xC72 PUSH2 0xC30 JUMP JUMPDEST JUMPDEST PUSH0 PUSH2 0xC80 DUP5 DUP3 DUP6 ADD PUSH2 0xC4A JUMP JUMPDEST SWAP2 POP POP SWAP3 SWAP2 POP POP JUMP JUMPDEST PUSH0 PUSH20 0xFFFFFFFFFFFFFFFFFFFFFFFFFFFFFFFFFFFFFFFF DUP3 AND SWAP1 POP SWAP2 SWAP1 POP JUMP JUMPDEST PUSH0 PUSH2 0xCB2 DUP3 PUSH2 0xC89 JUMP JUMPDEST SWAP1 POP SWAP2 SWAP1 POP JUMP JUMPDEST PUSH2 0xCC2 DUP2 PUSH2 0xCA8 JUMP JUMPDEST DUP3 MSTORE POP POP JUMP JUMPDEST PUSH0 PUSH1 0x20 DUP3 ADD SWAP1 POP PUSH2 0xCDB PUSH0 DUP4 ADD DUP5 PUSH2 0xCB9 JUMP JUMPDEST SWAP3 SWAP2 POP POP JUMP JUMPDEST PUSH0 DUP2 ISZERO ISZERO SWAP1 POP SWAP2 SWAP1 POP JUMP JUMPDEST PUSH2 0xCF5 DUP2 PUSH2 0xCE1 JUMP JUMPDEST DUP3 MSTORE POP POP JUMP JUMPDEST PUSH0 PUSH1 0xA0 DUP3 ADD SWAP1 POP PUSH2 0xD0E PUSH0 DUP4 ADD DUP9 PUSH2 0xC08 JUMP JUMPDEST PUSH2 0xD1B PUSH1 0x20 DUP4 ADD DUP8 PUSH2 0xCB9 JUMP JUMPDEST PUSH2 0xD28 PUSH1 0x40 DUP4 ADD DUP7 PUSH2 0xC08 JUMP JUMPDEST PUSH2 0xD35 PUSH1 0x60 DUP4 ADD DUP6 PUSH2 0xC08 JUMP JUMPDEST PUSH2 0xD42 PUSH1 0x80 DUP4 ADD DUP5 PUSH2 0xCEC JUMP JUMPDEST SWAP7 SWAP6 POP POP POP POP POP POP JUMP JUMPDEST PUSH2 0xD55 DUP2 PUSH2 0xCA8 JUMP JUMPDEST DUP2 EQ PUSH2 0xD5F JUMPI PUSH0 DUP1 REVERT JUMPDEST POP JUMP JUMPDEST PUSH0 DUP2 CALLDATALOAD SWAP1 POP PUSH2 0xD70 DUP2 PUSH2 0xD4C JUMP JUMPDEST SWAP3 SWAP2 POP POP JUMP JUMPDEST PUSH0 DUP1 PUSH1 0x40 DUP4 DUP6 SUB SLT ISZERO PUSH2 0xD8C JUMPI PUSH2 0xD8B PUSH2 0xC30 JUMP JUMPDEST JUMPDEST PUSH0 PUSH2 0xD99 DUP6 DUP3 DUP7 ADD PUSH2 0xD62 JUMP JUMPDEST SWAP3 POP POP PUSH1 0x20 PUSH2 0xDAA DUP6 DUP3 DUP7 ADD PUSH2 0xC4A JUMP JUMPDEST SWAP2 POP POP SWAP3 POP SWAP3 SWAP1 POP JUMP JUMPDEST PUSH0 DUP3 DUP3 MSTORE PUSH1 0x20 DUP3 ADD SWAP1 POP SWAP3 SWAP2 POP POP JUMP JUMPDEST PUSH32 0x4E6F7420616E206F776E65720000000000000000000000000000000000000000 PUSH0 DUP3 ADD MSTORE POP JUMP JUMPDEST PUSH0 PUSH2 0xDF8 PUSH1 0xC DUP4 PUSH2 0xDB4 JUMP JUMPDEST SWAP2 POP PUSH2 0xE03 DUP3 PUSH2 0xDC4 JUMP JUMPDEST PUSH1 0x20 DUP3 ADD SWAP1 POP SWAP2 SWAP1 POP JUMP JUMPDEST PUSH0 PUSH1 0x20 DUP3 ADD SWAP1 POP DUP2 DUP2 SUB PUSH0 DUP4 ADD MSTORE PUSH2 0xE25 DUP2 PUSH2 0xDEC JUMP JUMPDEST SWAP1 POP SWAP2 SWAP1 POP JUMP JUMPDEST PUSH32 0x496E76616C6964207472616E73616374696F6E20494400000000000000000000 PUSH0 DUP3 ADD MSTORE POP JUMP JUMPDEST PUSH0 PUSH2 0xE60 PUSH1 0x16 DUP4 PUSH2 0xDB4 JUMP JUMPDEST SWAP2 POP PUSH2 0xE6B DUP3 PUSH2 0xE2C JUMP JUMPDEST PUSH1 0x20 DUP3 ADD SWAP1 POP SWAP2 SWAP1 POP JUMP JUMPDEST PUSH0 PUSH1 0x20 DUP3 ADD SWAP1 POP DUP2 DUP2 SUB PUSH0 DUP4 ADD MSTORE PUSH2 0xE8D DUP2 PUSH2 0xE54 JUMP JUMPDEST SWAP1 POP SWAP2 SWAP1 POP JUMP JUMPDEST PUSH32 0x5472616E73616374696F6E20616C726561647920657865637574656400000000 PUSH0 DUP3 ADD MSTORE POP JUMP JUMPDEST PUSH0 PUSH2 0xEC8 PUSH1 0x1C DUP4 PUSH2 0xDB4 JUMP JUMPDEST SWAP2 POP PUSH2 0xED3 DUP3 PUSH2 0xE94 JUMP JUMPDEST PUSH1 0x20 DUP3 ADD SWAP1 POP SWAP2 SWAP1 POP JUMP JUMPDEST PUSH0 PUSH1 0x20 DUP3 ADD SWAP1 POP DUP2 DUP2 SUB PUSH0 DUP4 ADD MSTORE PUSH2 0xEF5 DUP2 PUSH2 0xEBC JUMP JUMPDEST SWAP1 POP SWAP2 SWAP1 POP JUMP JUMPDEST PUSH32 0x4E487B7100000000000000000000000000000000000000000000000000000000 PUSH0 MSTORE PUSH1 0x32 PUSH1 0x4 MSTORE PUSH1 0x24 PUSH0 REVERT JUMPDEST PUSH32 0x416C726561647920617070726F76656400000000000000000000000000000000 PUSH0 DUP3 ADD MSTORE POP JUMP JUMPDEST PUSH0 PUSH2 0xF5D PUSH1 0x10 DUP4 PUSH2 0xDB4 JUMP JUMPDEST SWAP2 POP PUSH2 0xF68 DUP3 PUSH2 0xF29 JUMP JUMPDEST PUSH1 0x20 DUP3 ADD SWAP1 POP SWAP2 SWAP1 POP JUMP JUMPDEST PUSH0 PUSH1 0x20 DUP3 ADD SWAP1 POP DUP2 DUP2 SUB PUSH0 DUP4 ADD MSTORE PUSH2 0xF8A DUP2 PUSH2 0xF51 JUMP JUMPDEST SWAP1 POP SWAP2 SWAP1 POP JUMP JUMPDEST PUSH32 0x4E487B7100000000000000000000000000000000000000000000000000000000 PUSH0 MSTORE PUSH1 0x11 PUSH1 0x4 MSTORE PUSH1 0x24 PUSH0 REVERT JUMPDEST PUSH0 PUSH2 0xFC8 DUP3 PUSH2 0xBFF JUMP JUMPDEST SWAP2 POP PUSH32 0xFFFFFFFFFFFFFFFFFFFFFFFFFFFFFFFFFFFFFFFFFFFFFFFFFFFFFFFFFFFFFFFF DUP3 SUB PUSH2 0xFFA JUMPI PUSH2 0xFF9 PUSH2 0xF91 JUMP JUMPDEST JUMPDEST PUSH1 0x1 DUP3 ADD SWAP1 POP SWAP2 SWAP1 POP JUMP JUMPDEST PUSH32 0x4E487B7100000000000000000000000000000000000000000000000000000000 PUSH0 MSTORE PUSH1 0x41 PUSH1 0x4 MSTORE PUSH1 0x24 PUSH0 REVERT JUMPDEST PUSH32 0x4E6F7420656E6F75676820617070726F76616C73000000000000000000000000 PUSH0 DUP3 ADD MSTORE POP JUMP JUMPDEST PUSH0 PUSH2 0x1066 PUSH1 0x14 DUP4 PUSH2 0xDB4 JUMP JUMPDEST SWAP2 POP PUSH2 0x1071 DUP3 PUSH2 0x1032 JUMP JUMPDEST PUSH1 0x20 DUP3 ADD SWAP1 POP SWAP2 SWAP1 POP JUMP JUMPDEST PUSH0 PUSH1 0x20 DUP3 ADD SWAP1 POP DUP2 DUP2 SUB PUSH0 DUP4 ADD MSTORE PUSH2 0x1093 DUP2 PUSH2 0x105A JUMP JUMPDEST SWAP1 POP SWAP2 SWAP1 POP JUMP JUMPDEST PUSH32 0x496E73756666696369656E742066756E647320696E207468652077616C6C6574 PUSH0 DUP3 ADD MSTORE POP JUMP JUMPDEST PUSH0 PUSH2 0x10CE PUSH1 0x20 DUP4 PUSH2 0xDB4 JUMP JUMPDEST SWAP2 POP PUSH2 0x10D9 DUP3 PUSH2 0x109A JUMP JUMPDEST PUSH1 0x20 DUP3 ADD SWAP1 POP SWAP2 SWAP1 POP JUMP JUMPDEST PUSH0 PUSH1 0x20 DUP3 ADD SWAP1 POP DUP2 DUP2 SUB PUSH0 DUP4 ADD MSTORE PUSH2 0x10FB DUP2 PUSH2 0x10C2 JUMP JUMPDEST SWAP1 POP SWAP2 SWAP1 POP JUMP JUMPDEST PUSH0 DUP2 SWAP1 POP SWAP3 SWAP2 POP POP JUMP JUMPDEST POP JUMP JUMPDEST PUSH0 PUSH2 0x111A PUSH0 DUP4 PUSH2 0x1102 JUMP JUMPDEST SWAP2 POP PUSH2 0x1125 DUP3 PUSH2 0x110C JUMP JUMPDEST PUSH0 DUP3 ADD SWAP1 POP SWAP2 SWAP1 POP JUMP JUMPDEST PUSH0 PUSH2 0x1139 DUP3 PUSH2 0x110F JUMP JUMPDEST SWAP2 POP DUP2 SWAP1 POP SWAP2 SWAP1 POP JUMP JUMPDEST PUSH32 0x5472616E73666572206661696C65640000000000000000000000000000000000 PUSH0 DUP3 ADD MSTORE POP JUMP JUMPDEST PUSH0 PUSH2 0x1177 PUSH1 0xF DUP4 PUSH2 0xDB4 JUMP JUMPDEST SWAP2 POP PUSH2 0x1182 DUP3 PUSH2 0x1143 JUMP JUMPDEST PUSH1 0x20 DUP3 ADD SWAP1 POP SWAP2 SWAP1 POP JUMP JUMPDEST PUSH0 PUSH1 0x20 DUP3 ADD SWAP1 POP DUP2 DUP2 SUB PUSH0 DUP4 ADD MSTORE PUSH2 0x11A4 DUP2 PUSH2 0x116B JUMP JUMPDEST SWAP1 POP SWAP2 SWAP1 POP JUMP INVALID LOG2 PUSH5 0x6970667358 0x22 SLT KECCAK256 0xD7 PUSH23 0xDEE91B49F25A11BA7453AA8D9C73872BEDB257FC874BA9 0xB2 CALLDATACOPY DUP10 0xAA SWAP9 0xF6 0xDD PUSH5 0x736F6C6343 STOP ADDMOD AND STOP CALLER "
				},
				"gasEstimates": {
					"creation": {
						"codeDepositCost": "915400",
						"executionCost": "infinite",
						"totalCost": "infinite"
					},
					"external": {
						"approveTransaction(uint256)": "infinite",
						"getBalance()": "357",
						"owner1()": "2505",
						"owner2()": "2575",
						"owner3()": "2552",
						"proposeTransaction(address,uint256)": "infinite",
						"transactionIdCounter()": "2426",
						"transactions(uint256)": "infinite"
					},
					"internal": {
						"executeTransaction(uint256)": "infinite"
					}
				},
				"methodIdentifiers": {
					"approveTransaction(uint256)": "242232d1",
					"getBalance()": "12065fe0",
					"owner1()": "73688914",
					"owner2()": "52709725",
					"owner3()": "b6f36dcf",
					"proposeTransaction(address,uint256)": "f19a6682",
					"transactionIdCounter()": "0c536933",
					"transactions(uint256)": "9ace38c2"
				}
			},
			"storageLayout": {
				"storage": [
					{
						"astId": 3,
						"contract": "contracts/3_MultiSigWallet.sol:MultiSigWallet",
						"label": "owner1",
						"offset": 0,
						"slot": "0",
						"type": "t_address"
					},
					{
						"astId": 5,
						"contract": "contracts/3_MultiSigWallet.sol:MultiSigWallet",
						"label": "owner2",
						"offset": 0,
						"slot": "1",
						"type": "t_address"
					},
					{
						"astId": 7,
						"contract": "contracts/3_MultiSigWallet.sol:MultiSigWallet",
						"label": "owner3",
						"offset": 0,
						"slot": "2",
						"type": "t_address"
					},
					{
						"astId": 9,
						"contract": "contracts/3_MultiSigWallet.sol:MultiSigWallet",
						"label": "transactionIdCounter",
						"offset": 0,
						"slot": "3",
						"type": "t_uint256"
					},
					{
						"astId": 28,
						"contract": "contracts/3_MultiSigWallet.sol:MultiSigWallet",
						"label": "transactions",
						"offset": 0,
						"slot": "4",
						"type": "t_mapping(t_uint256,t_struct(Transaction)23_storage)"
					}
				],
				"types": {
					"t_address": {
						"encoding": "inplace",
						"label": "address",
						"numberOfBytes": "20"
					},
					"t_array(t_address)dyn_storage": {
						"base": "t_address",
						"encoding": "dynamic_array",
						"label": "address[]",
						"numberOfBytes": "32"
					},
					"t_bool": {
						"encoding": "inplace",
						"label": "bool",
						"numberOfBytes": "1"
					},
					"t_mapping(t_uint256,t_struct(Transaction)23_storage)": {
						"encoding": "mapping",
						"key": "t_uint256",
						"label": "mapping(uint256 => struct MultiSigWallet.Transaction)",
						"numberOfBytes": "32",
						"value": "t_struct(Transaction)23_storage"
					},
					"t_struct(Transaction)23_storage": {
						"encoding": "inplace",
						"label": "struct MultiSigWallet.Transaction",
						"members": [
							{
								"astId": 11,
								"contract": "contracts/3_MultiSigWallet.sol:MultiSigWallet",
								"label": "id",
								"offset": 0,
								"slot": "0",
								"type": "t_uint256"
							},
							{
								"astId": 13,
								"contract": "contracts/3_MultiSigWallet.sol:MultiSigWallet",
								"label": "destination",
								"offset": 0,
								"slot": "1",
								"type": "t_address"
							},
							{
								"astId": 15,
								"contract": "contracts/3_MultiSigWallet.sol:MultiSigWallet",
								"label": "amount",
								"offset": 0,
								"slot": "2",
								"type": "t_uint256"
							},
							{
								"astId": 17,
								"contract": "contracts/3_MultiSigWallet.sol:MultiSigWallet",
								"label": "approvals",
								"offset": 0,
								"slot": "3",
								"type": "t_uint256"
							},
							{
								"astId": 20,
								"contract": "contracts/3_MultiSigWallet.sol:MultiSigWallet",
								"label": "approvedBy",
								"offset": 0,
								"slot": "4",
								"type": "t_array(t_address)dyn_storage"
							},
							{
								"astId": 22,
								"contract": "contracts/3_MultiSigWallet.sol:MultiSigWallet",
								"label": "executed",
								"offset": 0,
								"slot": "5",
								"type": "t_bool"
							}
						],
						"numberOfBytes": "192"
					},
					"t_uint256": {
						"encoding": "inplace",
						"label": "uint256",
						"numberOfBytes": "32"
					}
				}
			},
			"userdoc": {
				"kind": "user",
				"methods": {},
				"version": 1
			}
		}
	}
}